:100000000C9430010C944D010C944D010C944D0155
:100010000C944D010C944D010C944D010C944D0128
:100020000C944D010C944D010C944D010C944D0118
:100030000C944D010C94AB0A0C940E0A0C944D01D7
:100040000C944D010C944D010C94870E0C94B50E3C
:100050000C944D010C944D010C944D010C944D01E8
:100060000C944D010C944D01084AD73B3BCE016ED8
:1000700084BCBFFDC12F3D6C74319ABD56833DDAFF
:100080003D00C77F11BED9E4BB4C3E916BAAAABE0E
:10009000000000803F0000B0403333A34066669606
:1000A0004033338B409A99814000007040000060DB
:1000B000400000504033334340666636409A9929E9
:1000C000400000204066661640000010406666064C
:1000D00040000000403333F33FCDCCEC3F0000E064
:1000E0003F9A99D93FCDCCCC3F6666C63F0000C051
:1000F0003F9A99B93F3333B33FCDCCAC3FCDCCAC75
:100100003F6666A63F6666A63F0000A03F0000A0CF
:100110003F9A99993F9A99993F3333933F33339359
:100120003F3333933FCDCC8C3FCDCC8C3FCDCC8C6B
:100130003FCDCC8C3FCDCC8C3F6666863F666686D5
:100140003F6666863F6666863F6666863F6666866B
:100150003F6666863F0000803F0000803F6E616E14
:1001600000696E660000407A10F35A00A0724E18C3
:10017000090010A5D4E80000E87648170000E40B59
:1001800054020000CA9A3B000000E1F5050000801F
:10019000969800000040420F000000A08601000079
:1001A00000102700000000E80300000000640000C9
:1001B0000000000A00000000000100000000002C08
:1001C00076D888DC674F0823DFC1DFAE59E1B1B7CD
:1001D00096E5E3E453C63AE651997696E8E6C2849A
:1001E00026EB898C9B62ED407C6FFCEFBC9C9F40B2
:1001F000F2BAA56FA5F490055A2AF75C936B6CF9D7
:10020000676DC11BFCE0E40D47FEF520E6B500D0AC
:10021000ED902E0300943577050080841E080000C1
:10022000204E0A000000C80C333333330F986E128F
:10023000831141EF8D2114893BE65516CFFEE6DB95
:1002400018D1844B381BF77C1D901DA4BBE42420DF
:100250003284725E228100C9F124ECA1E53D2700C1
:1002600011241FBECFEFD8E0DEBFCDBF12E0A0E06B
:10027000B1E0ECEDFFE202C005900D92A434B107AD
:10028000D9F713E0A4E4B2E001C01D92AA3AB10785
:10029000E1F70E942E0E0C94EC170C9400006F9264
:1002A0007F928F929F92AF92BF92CF92DF92EF9206
:1002B000FF920F931F93CF93DF9308C0C401B30144
:1002C0002BED3FE049EC50E40E94760F3B014C01DE
:1002D00020E030E040E050E00E943C1087FDEECF8F
:1002E0000AC0C401B3012BED3FE049EC50E40E9489
:1002F000750F3B014C01C401B3012BED3FE049EC0C
:1003000050E40E94BE11181664F3C401B3012BED32
:100310003FE049E450E40E94BE1118161CF0C0E012
:10032000D0E00CC0C401B3012BED3FE049E450E440
:100330000E94750F3B014C01C1E0D0E06BED7FE006
:1003400089E490E4A40193010E94750F7B018C0164
:10035000C401B30120E030E040E851E40E94FF1105
:10036000A80197010E94FF115B016C01C401B30158
:1003700020E030E040E850EC0E94FF11A801970116
:100380000E94FF1126E636E645E452E40E94760F0D
:100390009B01AC01C601B5010E944010CD2B09F0B4
:1003A0009058DF91CF911F910F91FF90EF90DF90C8
:1003B000CF90BF90AF909F908F907F906F90089557
:1003C0009B01AC016BED7FE089EC9FE30E94750F10
:1003D0000E944F0108952F923F924F925F926F9229
:1003E0007F928F929F92AF92BF92CF92DF92EF92C5
:1003F000FF920F931F93DF93CF9300D0CDB7DEB75B
:100400007B018C0119012A011A82198220E030E057
:1004100040E050E00E943C10882324F481E090E00A
:100420009A838983C801B70125E532EA48E15FE391
:100430000E94FF11A20191010E94FF113B014C019A
:1004400020E030E040E050E00E943C10882324F49B
:1004500097FA909497F89094C801B701A801970172
:100460000E94FF115B016C01C401B301A40193015F
:100470000E94760F9B01AC01C601B5010E94760F68
:100480007B018C01C201B101A20191010E94FF1107
:100490009B01AC01C801B7010E94760F7B018C0162
:1004A000C601B501A40193010E94760FA80197012E
:1004B0000E9440102BED3FE049EC5FE30E94FF11EA
:1004C0007B018C0188249924C201B10120E030E035
:1004D00040E050E00E943C1088231CF481E0882E0C
:1004E000912CE981FA818E169F0651F06BED7FE029
:1004F00089E490E4A80197010E94750F7B018C01AB
:1005000089819A81019751F4C801B7012BED3FE031
:1005100049E450E40E94760F7B018C01B701C801C9
:100520000F900F90CF91DF911F910F91FF90EF905F
:10053000DF90CF90BF90AF909F908F907F906F9003
:100540005F904F903F902F900895EF92FF920F93FE
:100550001F9320E030E040E85BE30E94FF1120E0C1
:1005600030E040E85FE30E94760F7B018C0120E0E1
:1005700030E040E050E00E943C1088232CF4E0E0A2
:1005800070E080E060E024C0C801B701A8019701D5
:100590000E94FF119B01AC010E94FF119B01AC0165
:1005A0000E94FF119B01AC010E94FF119B01AC0155
:1005B0000E94FF119B01AC010E94FF119B01AC0145
:1005C0000E94FF119B01AC010E94FF11E62F692FD1
:1005D0002E2F372F482F562FB901CA011F910F9187
:1005E000FF90EF9008956F927F928F929F92AF92BB
:1005F000BF92CF92DF92EF92FF920F931F93DF9300
:10060000CF9300D0CDB7DEB73B014C01AE014F5FB9
:100610005F4F0E94AB118B019C0189819A8162E03E
:1006200070E00E941516AB01C901B8010E94CB1100
:100630007B018C0120E030E040E05FE30E94FF118D
:100640005B016C01C401B30120E030E040E05FE3F6
:100650000E94FF11A80197010E9440109B01AC016C
:10066000C601B5010E94760F0F900F90CF91DF91D8
:100670001F910F91FF90EF90DF90CF90BF90AF90C0
:100680009F908F907F906F900895EF92FF920F93BD
:100690001F93CF93DF93182FE62E042FF52E66239A
:1006A000A1F080ED0E94F307812F0E948B08802F1C
:1006B0009F2D9C01E90110E004C089910E948B08E4
:1006C0001F5F1E15D0F30E947B08DF91CF911F9111
:1006D0000F91FF90EF900895DF93CF930F92CDB7D6
:1006E000DEB7698361E0AE014F5F5F4F0E94450353
:1006F0000F90CF91DF910895DF92EF92FF920F93C9
:100700001F93CF93DF93182FD62E042FF52E662339
:1007100011F410E02AC080ED0E94F307812F0E949F
:100720008B0885E38A95F1F781ED0E94F307802F0E
:100730009F2D9C018901C0E0D0E0ED2CFF2408949E
:10074000E108F1080DC0CE15DF0519F40E94C608B6
:1007500002C00E94AC08F801808321960F5F1F4FF2
:10076000CD1588F31D2D0E947B08812FDF91CF913D
:100770001F910F91FF90EF90DF9008956F927F92FD
:100780008F929F92AF92BF92CF92DF92EF92FF92A1
:100790000F931F936C015B014A0139018BE36EE0FB
:1007A0004CED52E00E947C034091DC022091DD027E
:1007B000942F80E030E0822B932BF601918380838D
:1007C0004091DE022091DF02942F80E030E0822B06
:1007D000932BF501918380834091E0022091E10207
:1007E000942F80E030E0822B932BF401918380835F
:1007F0004091E4022091E502942F80E030E0822BCA
:10080000932BF301918380834091E6022091E702CC
:10081000942F80E030E0822B932BF801918380832A
:100820004091E8022091E902942F80E030E0822B91
:10083000932BF701918380831F910F91FF90EF908D
:10084000DF90CF90BF90AF909F908F907F906F90F0
:1008500008952F923F924F925F926F927F928F9264
:100860009F92AF92BF92CF92DF92EF92FF920F933F
:100870001F93DF93CF93CDB7DEB72C970FB6F894C5
:10088000DEBF0FBECDBF6C015B014A0139012801FB
:1008900017011A8219821C821B821E821D821886F1
:1008A0001F821A8619861C861B86CE010196BE0100
:1008B0006D5F7F4FAE014B5F5F4F9E01295F3F4FE2
:1008C0008E01075F1F4FEBE0EE2EF12CEC0EFD1EAC
:1008D0000E94BE0369817A81882777FD8095982FD1
:1008E0000E94D61020E030E040E858E30E94FF115B
:1008F000F60160837183828393836B817C81882777
:1009000077FD8095982F0E94D61020E030E040E8D7
:1009100058E30E94FF11F501608371838283938302
:100920006D817E81882777FD8095982F0E94D61053
:1009300020E030E040E858E30E94FF11F4016083BA
:100940007183828393836F817885665D7F4F88276B
:1009500077FD8095982F0E94D61023E333E343E878
:1009600051E40E944010F30160837183828393837A
:1009700069857A8569507040882777FD8095982F22
:100980000E94D61023E333E343E851E40E94401071
:10099000F20160837183828393836B857C85635EC0
:1009A0007F4F882777FD8095982F0E94D61023E3EC
:1009B00033E343E851E40E944010F1016083718306
:1009C000828393832C960FB6F894DEBF0FBECDBF03
:1009D000CF91DF911F910F91FF90EF90DF90CF901B
:1009E000BF90AF909F908F907F906F905F904F904F
:1009F0003F902F900895AB0161E00E947C03089521
:100A0000FF920F931F93DF93CF930F92CDB7DEB773
:100A1000F82E062F142FBE016F5F7F4F0E94FB043C
:100A20002981112351F081E090E002C0880F991FC5
:100A30000A95E2F7622F682B0AC081E090E002C0BD
:100A4000880F991F0A95E2F7682F609562236983E2
:100A50008F2D0E946C030F90CF91DF911F910F910A
:100A6000FF9008958BE666E041E00E94000508953E
:100A70008BE666E040E00E9400050895EF92FF9249
:100A80000F931F93DF93CF930F92CDB7DEB7E82E6E
:100A9000062F142FF22E442379F11982BE016F5FC5
:100AA0007F4F0E94FB04882339F1212F30E0402F33
:100AB00050E04F5F5F4F421B530B81E090E002C05C
:100AC000880F991F1A95E2F70197042E02C0880F2C
:100AD000991F0A94E2F72F2D30E002C0220F331F36
:100AE0004A95E2F7682F6095498164238223682B39
:100AF00069838E2D0E946C030F90CF91DF911F911F
:100B00000F91FF90EF9008950E94ED0785E38A957D
:100B1000F1F788EE93E020E931E0F9013197F1F740
:100B20000197D9F70E94380580E49CE90197F1F715
:100B30008BE662E043E021E00E943E058AE162E04C
:100B400043E023E00E943E0589E164E00E946C03DB
:100B50008BE164E042E023E00E943E058CE164E02A
:100B600042E020E00E943E050895FF920F931F93FC
:100B7000DF93CF930F92CDB7DEB7F62E8A01BE0179
:100B80006F5F7F4F0E94FB0421E030E002C0220F24
:100B9000331FFA94E2F799819223F80190830F9022
:100BA000CF91DF911F910F91FF900895EF92FF92E7
:100BB0000F931F93DF93CF930F92CDB7DEB7062F1E
:100BC000142F7901442311F460E029C0BE016F5F46
:100BD0007F4F0E94FB04682F882309F1812F90E04A
:100BE000402F50E04F5F5F4F481B590B21E030E032
:100BF00002C0220F331F1A95E2F721503040042E15
:100C000002C0220F331F0A94E2F78981822390E009
:100C100002C0959587954A95E2F7F7018083862F64
:100C20000F90CF91DF911F910F91FF90EF9008955A
:100C300085E766E046E02CED32E00E94D605809123
:100C4000DC0290E0843309F491E0892F08952F921B
:100C50003F924F925F926F927F928F929F92AF924C
:100C6000BF92CF92DF92EF92FF920F931F93DF9389
:100C7000CF93CDB7DEB768970FB6F894DEBF0FBE3F
:100C8000CDBF5C0149835A836B837C83C901B80162
:100C9000D50150962D913D914D915C9153970E94B5
:100CA000750F9B01AC01F501648B758B868B978B5F
:100CB000C701B6010E94FF119B01AC01D5011C9632
:100CC0006D917D918D919C911F970E94760F6D8300
:100CD0007E838F839887F5016487758786879787DA
:100CE000C701B60124A135A146A157A10E94FF1159
:100CF0003B014C01D5015C962D913D914D915C914C
:100D00005F970E94750FF50120A131A142A153A167
:100D10000E94750FD5012D913D914D915C910E94DE
:100D2000760F9B01AC01C701B6010E94FF119B0128
:100D3000AC01F501608D718D828D938D0E94760FCF
:100D40001B012C01D50158966D937D938D939C9337
:100D50005B975C966D917D918D919C915F97A401BD
:100D600093010E94750F69877A878B879C87F501AD
:100D7000648F758F868F978F60A171A182A193A1D7
:100D8000A40193010E94750F6D877E878F87988BD2
:100D9000D50190966D937D938D939C939397C70106
:100DA000B60114962D913D914D915C9117970E943B
:100DB000FF119B01AC01F50164A175A186A197A16A
:100DC0000E94760F698B7A8B8B8B9C8BD5019496C6
:100DD0006D937D938D939C939797C201B101189663
:100DE0002D913D914D915C911B970E94760F7B0157
:100DF0008C01C201B101A80197010E9440103B0182
:100E00004C016D857E858F859889A80197010E9488
:100E100040106D8B7E8B8F8B988F69817A818B814F
:100E20009C812D813E814F8158850E94750F7B01E9
:100E30008C01C401B301A80197010E94FF119B011D
:100E4000AC016D817E818F8198850E94760FF501BE
:100E500064877587868797876D897E898F89988D46
:100E6000A80197010E94FF119B01AC01D50150968A
:100E70006D917D918D919C9153970E94760FF50114
:100E8000608B718B828B938BC401B301A2019101A2
:100E90000E94FF119B01AC01C201B1010E94750FBC
:100EA000D50158966D937D938D939C935B97C40168
:100EB000B30129853A854B855C850E94FF119B0112
:100EC000AC0169857A858B859C850E94750FF5013B
:100ED000648F758F868F978F6D897E898F89988DA6
:100EE000A20191010E94FF119B01AC016D857E85DD
:100EF0008F8598890E94750FD50190966D937D938B
:100F00008D939C9393976D897E898F89988D298580
:100F10003A854B855C850E94FF119B01AC01698974
:100F20007A898B899C890E94750FF50164A375A34A
:100F300086A397A368960FB6F894DEBF0FBECDBF09
:100F4000CF91DF911F910F91FF90EF90DF90CF90A5
:100F5000BF90AF909F908F907F906F905F904F90D9
:100F60003F902F900895FC0120E030E040E050E0F9
:100F70002487358746875787208B318B428B538B4D
:100F8000248B358B468B578B8FE692E1A3E8BAE32F
:100F900080839183A283B38386EA9BE9A4E4BBE3C5
:100FA00084839583A683B7838FE892ECA5EFBCE397
:100FB00080879187A287B387208F318F428F538F8D
:100FC000248F358F468F578F20A331A342A353A37D
:100FD00024A335A346A357A308951092B90088E42B
:100FE0008093B8000895982F84EA8093BC002FEF77
:100FF00030E040E050E08091BC0087FF07C0211541
:1010000031054105510509F431C005C021503109B0
:101010004109510980F78091B900887F883011F02B
:10102000803121F59093BB0084E88093BC002FEFC2
:1010300030E040E050E08091BC0087FF06C0211501
:1010400031054105510591F005C021503109410993
:10105000510988F79091B900987F983111F480E098
:10106000089580E0903419F081E0089581E00895BA
:10107000982F64EA54E844E96093BC0020E030E033
:101080008091BC0087FD06C02F5F3F4F81E020307C
:101090003807B1F78091B900887F883011F080312E
:1010A00059F79093BB005093BC0020E030E0809152
:1010B000BC0087FD06C02F5F3F4F81E0203038071E
:1010C000B1F78091B900887F803211F0883579F4CA
:1010D0004093BC0020E030E08091BC0084FFCCCF86
:1010E0002F5F3F4F81E020303807B1F7C5CF08951B
:1010F0000E94F307089584E98093BC0020E030E06B
:101100008091BC0084FF06C02F5F3F4F81E02030FC
:101110003807B1F708958093BB0084E88093BC0042
:101120002FEF30E040E050E08091BC0087FF06C028
:10113000211531054105510561F005C021503109E6
:101140004109510988F78091B90090E0887F883281
:1011500009F091E0892F089584EC8093BC002FEF73
:1011600030E040E050E08091BC0087FF07C02115CF
:1011700031054105510539F480E0089521503109C8
:101180004109510980F78091BB00089584E880935C
:10119000BC002FEF30E040E050E08091BC0087FFC2
:1011A00007C0211531054105510539F480E0089546
:1011B000215031094109510980F78091BB00089500
:1011C0001092210381E08093250380932403809370
:1011D00020038FEF90E090932B0380932A031092CB
:1011E00027031092260310922903109228030895D2
:1011F0000F931F93CF93DF93C5E9D0E00AEE12E07F
:10120000FE01659175918591949123EB39EA44EC47
:1012100050E40E94FF110E94A810F80161938F0111
:101220002496F1E0CD35DF0759F7DF91CF911F917B
:101230000F9108951F93182FA62FE62FF0E0ED5D74
:10124000FE4F8081992787FD9095E62FEB5AF0E0BD
:10125000ED5DFE4F6081772767FD7095A655B0E084
:10126000AD5DBE4F2C91332727FD3095FC01E49FE7
:10127000C001E59F900DF49F900D1124E92FFF27E9
:10128000E058FF4F649FC001659F900D749F900DC3
:101290001124692F772760587F4F249FC001259F15
:1012A000900D349F900D1124292F332720583F4F44
:1012B000112329F4E7BD68BD2093B40010C011309C
:1012C00071F4E093B300862F90E090938B008093AD
:1012D0008A00822F90E090938900809388001F916C
:1012E000089580E060E040E050E00E941A0981E04B
:1012F00060E040E050E00E941A0908950E94F8085A
:1013000084B18E6084B90E94E0080E94710908953A
:1013100080914D028F5F80934D02E0914D02F0E08D
:10132000ED5DFE4F4081552747FD5095E0914D0200
:10133000EB5AF0E0ED5DFE4F8081992787FD909597
:10134000E0914D02E655F0E0ED5DFE4F60817727BC
:1013500067FD709520912A0330912B03FA01E29FDB
:10136000A001E39F500DF29F500D1124452F5527EA
:10137000FC01E29FC001E39F900DF29F900D1124AC
:10138000E92FFF27E058FF4F629FC001639F900D38
:10139000729F900D1124292F332720583F4F40581A
:1013A0005F4F4093B3008091240318166CF48E2F86
:1013B00090E090938B0080938A00822F90E090932E
:1013C00089008093880008958E2F90E09093890083
:1013D00080938800822F90E090938B0080938A0006
:1013E000089520912803309129038091260390913C
:1013F00027038217930724F481E0809322030BC014
:101400002817390734F41092220381E080932303D4
:101410000895109222031092230308951F920F92B1
:101420000FB60F9211242F933F934F935F936F93B7
:101430007F938F939F93AF93BF93EF93FF9380918D
:101440004F029091500201969093500280934F0268
:10145000809126028823D9F10E9488098091220375
:10146000882391F080914E02813370F480914F0275
:101470009091500268EC70E00E940116892B21F4D3
:1014800080914E028F5F15C080912303882309F15C
:1014900080914E028823E9F080914F029091500292
:1014A00068EC70E00E940116892B99F480914E023D
:1014B000815080934E021092500210924F02E091A0
:1014C0004E02F0E0E651FD4F808187BD02C00E94D0
:1014D0007109FF91EF91BF91AF919F918F917F9192
:1014E0006F915F914F913F912F910F900FBE0F9091
:1014F0001F90189516BC84B5826084BD85B5836045
:1015000085BDEEE6F0E080818260808381E387BD67
:10151000E0E8F0E01082A1E8B0E01C9291EA90834C
:1015200081E08C93A0EBB0E01C92E1EBF0E0108244
:101530009C9380831092B3001092890010928800CF
:1015400010928B0010928A00EFE6F0E0108280810A
:101550008160808308951F920F920FB60F9211241D
:101560005F936F937F938F939F93AF93BF9380917C
:101570005302909154020196909354028093530227
:1015800080915302909154028F719070892B49F48D
:101590008091550290915602019690935602809345
:1015A000550280915302909154028F719070892B53
:1015B00069F480915502909156026AE070E00E94B1
:1015C0001516892B19F481E0809351028091530202
:1015D000909154028F719070892B89F480915502FB
:1015E0009091560268EE73E00E941516892B39F42B
:1015F000109256021092550281E080935202BF91E0
:10160000AF919F918F917F916F915F910F900FBEDE
:101610000F901F9018952F923F924F925F926F926A
:101620007F928F929F92AF92BF92CF92DF92EF9272
:10163000FF920F931F93DF93CF93CDB7DEB7A097A1
:101640000FB6F894DEBF0FBECDBF20E030E040E023
:1016500050E029833A834B835C832D833E834F8301
:10166000588729873A874B875C872D873E874F8726
:10167000588B298B3A8B4B8B5C8B2D8B3E8B4F8BF6
:10168000588FAA2797FDA095BA2FBC01CD010E94C3
:10169000D61020E030E04AE754E40E9440106D8FFD
:1016A0007E8F8F8F98A3CE010196BE016B5F7F4F17
:1016B000AE01475F5F4F9E01235F3F4F8E010F5E7C
:1016C0001F4FE5E1EE2EF12CEC0EFD1E0E942904C9
:1016D00069847A848B849C84C401B30120E030E067
:1016E00040E050E00E94BE1118161CF055245A9498
:1016F00002C055245394AD80BE80CF80D884E98049
:10170000FA800B811C81C801B7012FE632E143E862
:101710005AE30E94FF11A80197010E94FF117B016B
:101720008C01C401B301A40193010E94FF119B012C
:10173000AC01C801B7010E94760F0E94F3027B0141
:101740008C01652D772767FD7095872F972F0E9455
:10175000D610A80197010E94FF119B01AC01C601A0
:10176000B5010E94EB0120ED3FE049E450E40E9406
:10177000750F21EE3EE245E652E40E94FF111B0187
:101780002C01A980BA80CB80DC80D7FAD094D7F81E
:10179000D0942D813E814F815885E984FA840B8550
:1017A0001C85CA01B9010E94FF113B014C01C8010F
:1017B000B701A80197010E94FF119B01AC01C40170
:1017C000B3010E94760F0E94F3029B01AC01C60197
:1017D000B5010E94E90F21EE3EE245E652E40E9487
:1017E000FF113B014C0169817A818B819C812D81A4
:1017F0003E814F8158850E94EB0120ED3FE049E496
:1018000050E40E94750F21EE3EE245E652E40E944C
:10181000FF11698F7A8F8B8F9C8FC201B10120E0FD
:1018200030E044EB52EC0E943C10882384F4609139
:1018300038037091390380913A0390913B0320E083
:1018400030E044EB52E40E94BE111816D4F0C201FD
:10185000B10120E030E044EB52E40E94BE111816C2
:10186000CCF4609138037091390380913A039091E0
:101870003B0320E030E044EB52EC0E943C10882314
:101880004CF4209238033092390340923A0350923C
:101890003B0310C00D851E852F8538898CE293E0AF
:1018A000B201A101ED8DFE8DAF8DB8A16F017D015B
:1018B0000E942706C401B30120E030E044EB52EC63
:1018C0000E943C10882384F460916003709161034E
:1018D000809162039091630320E030E044EB52E496
:1018E0000E94BE111816D4F0C401B30120E030E00C
:1018F00044EB52E40E94BE111816CCF460916003D0
:1019000070916103809162039091630320E030E065
:1019100044EB52EC0E943C1088234CF4609260032C
:1019200070926103809262039092630310C00989F0
:101930001A892B893C8984E593E0B401A301ED8DDC
:10194000FE8DAF8DB8A16F017D010E942706698DC4
:101950007A8D8B8D9C8D20E030E044EB52EC0E9420
:101960003C10882384F460918803709189038091EE
:101970008A0390918B0320E030E044EB52E40E9414
:10198000BE111816E4F0698D7A8D8B8D9C8D20E048
:1019900030E044EB52E40E94BE111816ECF4609162
:1019A00088037091890380918A0390918B0320E0D2
:1019B00030E044EB52EC0E943C1088236CF4898D9B
:1019C0009A8DAB8DBC8D8093880390938903A093EF
:1019D0008A03B0938B0312C00D891E892F89388D1D
:1019E0008CE793E0498D5A8D6B8D7C8DED8DFE8D4E
:1019F000AF8DB8A16F017D010E942706A0960FB69A
:101A0000F894DEBF0FBECDBFCF91DF911F910F9134
:101A1000FF90EF90DF90CF90BF90AF909F908F900E
:101A20007F906F905F904F903F902F9008955F92BE
:101A30006F927F928F929F92AF92BF92CF92DF92DE
:101A4000EF92FF920F931F93DF93CF93CDB7DEB743
:101A500068970FB6F894DEBF0FBECDBF8CE293E05F
:101A60000E94B30784E593E00E94B3078CE793E0FC
:101A70000E94B30780E090E0A0E0B0E089839A8301
:101A8000AB83BC838D839E83AF83B88789879A8716
:101A9000AB87BC878D879E87AF87B88B898B9A8BE6
:101AA000AB8BBC8B8D8B9E8BAF8BB88FCE01019691
:101AB000BE016B5F7F4FAE01475F5F4F9E01235FAB
:101AC0003F4F8E010F5E1F4FF5E1EF2EF12CEC0E14
:101AD000FD1E0E94290469847A848B849C84C4013D
:101AE000B30120E030E040E050E00E94BE11181643
:101AF0001CF055245A9402C055245394AD80BE80E6
:101B0000CF80D884E980FA800B811C81C801B7019D
:101B10002FE632E143E85AE30E94FF11A801970142
:101B20000E94FF117B018C01C401B301A401930148
:101B30000E94FF119B01AC01C801B7010E94760F02
:101B40000E94F3027B018C01652D772767FD70955C
:101B5000872F972F0E94D610A80197010E94FF118E
:101B60009B01AC01C601B5010E94EB0120ED3FE0F5
:101B700049E450E40E94750F21EE3EE245E652E44E
:101B80000E94FF11609338037093390380933A03E6
:101B900090933B0369817A818B819C819058298540
:101BA0003A854B855C850E94EB0120ED3FE049E4DE
:101BB00050E40E94750F21EE3EE245E652E40E9499
:101BC000FF116093600370936103809362039093AD
:101BD000630369817A818B819C812D813E814F8154
:101BE00058850E94EB0120ED3FE049E450E40E945B
:101BF000750F21EE3EE245E652E40E94FF1160932C
:101C000088037093890380938A0390938B0368966B
:101C10000FB6F894DEBF0FBECDBFCF91DF911F91FD
:101C20000F91FF90EF90DF90CF90BF90AF909F907B
:101C30008F907F906F905F900895F8940E94F90EB6
:101C40000E9484050E94170D80E49CE90197F1F73A
:101C50000E947E090E947A0A789408950F931F9338
:101C6000CF93DF930E941D0E80EB94E090932903A5
:101C70008093280300E011E0C0E2D3E00E94F10964
:101C800080915102882331F081E090E00E940B0B9B
:101C900010925102809152028823A9F110925202AF
:101CA0008DB79EB70A970FB6F8949EBF0FBE8DBF33
:101CB000EDB7FEB73196ADB7BEB712961C930E9333
:101CC00011978091880390918903A0918A03B09124
:101CD0008B0382839383A483B58380919003909137
:101CE0009103A0919203B091930386839783A08779
:101CF000B1870E9479178DB79EB70A960FB6F894F0
:101D00009EBF0FBE8DBFCE010197F1F7B7CF1F92D7
:101D10000F920FB60F9211242F938F939F93EF93EF
:101D2000FF939091C0002091C600E091D902EF5F2F
:101D3000EF738091DA02E81711F492E007C098710E
:101D4000E093D902F0E0E956FD4F20838091DB0259
:101D5000982B9093DB02FF91EF919F918F912F91A0
:101D60000F900FBE0F901F9018951F920F920FB6F5
:101D70000F9211248F939F93EF93FF939091D7022B
:101D80008091D802981769F0E091D802EF5FEF7365
:101D9000E093D802F0E0E95AFD4F80818093C600BD
:101DA00005C08091C1008F7D8093C100FF91EF91AC
:101DB0009F918F910F900FBE0F901F9018959C01CF
:101DC0001092D7021092D8021092D9021092DA0221
:101DD00097FF04C082E08093C0003F773093C50036
:101DE0002093C40088E98093C10086E08093C200FC
:101DF000089580E190E00E94DF0E85E392E09093E9
:101E0000A7038093A60387E292E09093A5038093B3
:101E1000A403789408959091D9028091DA029817DA
:101E200019F420E031E010C0E091DA02EF5FEF73C7
:101E3000E093DA02F0E0E956FD4F80819091DB02F9
:101E40001092DB02282F30E0C9010895282F9091CD
:101E5000D7029F5F9F738091D8029817E1F3E92F13
:101E6000F0E0E95AFD4F20839093D7028091C100A2
:101E700080628093C10008951F939091D902809150
:101E8000DA029817D1F3E091DA02EF5FEF73E09393
:101E9000DA02F0E0E956FD4F10818091DB021092EA
:101EA000DB02812F0E94260F812F90E01F91089561
:101EB000282F9091D7029F5F9F738091D802981727
:101EC000E1F3E92FF0E0E95AFD4F20839093D70228
:101ED0008091C10080628093C1002A3019F48DE0A6
:101EE0000E94260F80E090E008955058BB27AA2753
:101EF0000ED0F7C1E8D130F0EDD120F031F49F3FA2
:101F000011F41EF4B8C10EF4E095E7FBAEC1E92F61
:101F1000F9D180F3BA17620773078407950718F0A1
:101F200071F49EF511C20EF4E0950B2EBA2FA02D80
:101F30000B01B90190010C01CA01A0011124FF2776
:101F4000591B99F0593F50F4503E68F11A16F04071
:101F5000A22F232F342F4427585FF3CF4695379570
:101F60002795A795F0405395C9F77EF41F16BA0B35
:101F7000620B730B840BBAF09150A1F0FF0FBB1FE3
:101F8000661F771F881FC2F70EC0BA0F621F731F2C
:101F9000841F48F4879577956795B795F7959E3F89
:101FA00008F0B3CF9395880F08F09927EE0F979517
:101FB0008795089588D158F080E891E009F49EEF64
:101FC00089D128F040E851E059F45EEF09C053C1CF
:101FD000BBC1E92FE07896D168F3092E052AC1F339
:101FE000261737074807590738F00E2E07F8E0255F
:101FF00069F0E025E0640AC0EF6307F8009407FA8F
:10200000DB01B9019D01DC01CA01AD01EF9347D0AD
:1020100068D10AD05F91552331F02BED3FE049E4C0
:1020200050FD49EC63CF0895DF93DD27B92FBF77CB
:1020300040E85FE31616170648075B0710F4D92F30
:10204000A1D19F938F937F936F933CD2E8E6F0E00A
:1020500015D147D12F913F914F915F91DCD1DD2375
:1020600049F09058A2EA2AED3FE049EC5FE3D078CE
:102070005D274DDFDF9135C1D4D008F481E00895AC
:102080000CD02FC127D140F01ED130F021F45F3F9A
:1020900019F0EBC0511159C1EEC034D198F3992316
:1020A000C9F35523B1F3951B550BBB27AA2762171C
:1020B0007307840738F09F5F5F4F220F331F441F61
:1020C000AA1FA9F333D00E2E3AF0E0E830D0915099
:1020D0005040E695001CCAF729D0FE2F27D0660F86
:1020E000771F881FBB1F261737074807AB07B0E8C5
:1020F00009F0BB0B802DBF01FF2793585F4F2AF0DB
:102100009E3F510568F0B1C020C15F3FECF3983E9F
:10211000DCF3869577956795B795F7959F5FC9F737
:10212000880F911D9695879597F90895E1E0660FC0
:10213000771F881FBB1F621773078407BA0720F039
:10214000621B730B840BBA0BEE1F88F7E0950895A2
:10215000E1D088F09F5790F0B92F9927B751A0F0A0
:10216000D1F0660F771F881F991F1AF0BA95C9F72B
:1021700012C0B13081F0E8D0B1E00895E5C0672F1A
:10218000782F8827B85F39F0B93FCCF386957795DB
:102190006795B395D9F73EF49095809570956195C4
:1021A0007F4F8F4F9F4F0895E89409C097FB3EF4EF
:1021B00090958095709561957F4F8F4F9F4F992394
:1021C000A9F0F92F96E9BB279395F6958795779512
:1021D0006795B795F111F8CFFAF4BB0F11F460FFD2
:1021E0001BC06F5F7F4F8F4F9F4F16C0882311F02A
:1021F00096E911C0772321F09EE8872F762F05C03E
:10220000662371F096E8862F70E060E02AF09A95D8
:10221000660F771F881FDAF7880F9695879597F9CD
:102220000895990F0008550FAA0BE0E8FEEF161667
:102230001706E807F907C0F012161306E407F507BA
:1022400098F0621B730B840B950B39F40A2661F02E
:10225000232B242B252B21F408950A2609F4A140D1
:10226000A6958FEF811D811D089597F99F6780E8DE
:1022700070E060E008959FEF80EC0895DF93CF93C6
:102280001F930F93FF92EF92DF927B018C01689472
:1022900005C0DA2EEF01BFD0FE01E894A59125918B
:1022A000359145915591AEF3EF0131DEFE01970175
:1022B000A801DA9479F7DF90EF90FF900F911F91CA
:1022C000CF91DF91089500240A9416161706180678
:1022D0000906089500240A9412161306140605062A
:1022E0000895092E0394000C11F4882352F0BB0FBB
:1022F00040F4BF2B11F460FF04C06F5F7F4F8F4F1E
:102300009F4F089557FD9058440F551F59F05F3F58
:1023100071F04795880F97FB991F61F09F3F79F007
:1023200087950895121613061406551FF2CF469589
:10233000F1DF08C0161617061806991FF1CF86950B
:102340007105610508940895E894BB2766277727EF
:10235000CB0197F90895FA0110821182DBDF68F052
:10236000992349F09E57550B87FFBDD09083518329
:1023700011248F779FE397F90895A7C052DF08F4DF
:102380008FEF08959B01AC0160E070E080E89FE36F
:1023900077CE6BCF9AC0BEDFE8F39923D9F3940FC1
:1023A000511DBBF39150504094F059F0882332F006
:1023B000660F771F881F91505040C1F79E3F51050F
:1023C00044F7880F911D9695879597F908955F3F7B
:1023D000ACF0983E9CF0BB27869577956795B795AE
:1023E00008F4B1609395C1F7BB0F58F711F460FF83
:1023F000E8CF6F5F7F4F8F4F9F4FE3CFA6CF0BD0BC
:1024000070CF61DF28F066DF18F0952309F02DCF3B
:1024100032CF11249ACF76DFA0F3959FD1F3950F99
:1024200050E0551F629FF001729FBB27F00DB11D58
:10243000639FAA27F00DB11DAA1F649F6627B00DE8
:10244000A11D661F829F2227B00DA11D621F739FD1
:10245000B00DA11D621F839FA00D611D221F749FDF
:102460003327A00D611D231F849F600D211D822F26
:10247000762F6A2F11249F5750408AF0E1F088236D
:102480004AF0EE0FFF1FBB1F661F771F881F91507A
:102490005040A9F79E3F510570F0E7CE56CF5F3F01
:1024A000ECF3983EDCF3869577956795B795F795AD
:1024B000E7959F5FC1F7FE2B880F911D9695879535
:1024C00097F908959B01AC019ACF9F3F31F091504D
:1024D00020F4879577956795B795880F911D969508
:1024E000879597F9089591505040660F771F881F80
:1024F000D2F70895A1E1B0E0E0E8F2E10C942816EB
:102500003C017F876E876A01FC01178216828381F6
:1025100081FD03C06FEF7FEF6FC39E012F5F3F4FC1
:10252000398B288BF3012381EE85FF8523FD85916F
:1025300023FF8191FF87EE87882309F45AC38532F0
:1025400051F4EE85FF8523FD859123FF8191FF875F
:10255000EE87853229F490E0B3010E944D17E2CF57
:10256000982F10E0882499241032B0F49B3269F03F
:102570009C3228F4903251F0933271F40BC09D32AA
:1025800039F0903349F4116028C01260146025C0FE
:10259000186023C0106121C017FD2AC0892F805305
:1025A0008A3078F416FF06C0FAE09F9E902C112422
:1025B000980E13C03AE0839E802C1124880E10627E
:1025C0000CC09E3221F416FD14C3106406C09C3664
:1025D00011F4106802C0983659F4EE85FF8523FD8A
:1025E000959123FF9191FF87EE87992309F0BCCF46
:1025F000892F8554833020F4812F8061905E07C03D
:10260000892F8556833008F09FC1812F8F7E86FDEC
:1026100002C076E0972E6FE3F62EF822953619F475
:10262000F0E4FF2A07C0963619F420E8F22A02C027
:1026300091109A94F7FE0AC03BE3391518F45CE355
:10264000B52E02C0B92CB39427E009C047E0491564
:1026500020F4BB2447E0942EF7CF292DBB24C601DC
:1026600004969D878C87F6016081718182819381B8
:10267000AE014F5F5F4F0B2D0E945F166C01098109
:10268000202E332400FF04C003FD02C01DE209C058
:10269000F1FE02C01BE205C0F2FC02C010E001C066
:1026A00010E2C1018C709070892BB9F1112311F4E3
:1026B00083E001C084E0881510F088240AC0881ADD
:1026C000F3FC07C080E290E0B3010E944D178A94AA
:1026D000C9F7112329F0812F90E0B3010E944D1713
:1026E00023FE03C00DE511E00EC001E611E00BC0B2
:1026F000E114F10409F0805290E0B3010E944D17FB
:102700000F5F1F4F05C0EF2CFF24F0E1EF22FF24E5
:10271000F8018491882361F714C1F7FE12C0BC0C44
:1027200024FE04C08A81813309F4BA941B141CF07E
:10273000BB24B3942DC0F8E0FB1550F538E0B32E60
:1027400027C0F6FC25C0892D90E08C159D054CF026
:102750002CEFC2162FEFD20624F030E8F32A01C086
:102760009A94992049F0E2E0F0E0EC0FFD1FE90DAA
:10277000F11D80818033A1F3F7FE0AC0B92CB39418
:10278000892D90E0C816D90614F0992401C09C1830
:10279000F7FC03C025E030E009C01C141D041CF048
:1027A00021E030E003C096012F5F3F4F112311F06D
:1027B0002F5F3F4F992029F0892D90E00196280F37
:1027C000391F882D90E02817390714F0882401C09C
:1027D000821A4F2C5524C20189709070892B39F0D0
:1027E00008C080E290E0B3010E944D178A948820CF
:1027F000C1F7112329F0812F90E0B3010E944D17FA
:1028000043FE07C008C080E390E0B3010E944D176B
:102810008A948820C1F7F7FE46C08601D7FE02C021
:1028200000E010E076010894E11CF11CE01AF10AC6
:1028300041E050E04C0F5D1FE40EF51E26014B18E1
:102840005108892D90E0AA24BB24A81AB90A5FEF89
:102850000F3F150729F48EE290E0B3010E944D1757
:10286000C016D10634F0401651061CF4F7018081E1
:1028700001C080E3015010400894E11CF11C0A15CE
:102880001B052CF090E0B3010E944D17E0CF0C1512
:102890001D0539F49A81963318F4953311F424FE0A
:1028A00081E390E04BC08A81813309F00F7E90E094
:1028B000B3010E944D179920A1F08EE290E0B30180
:1028C0000E944D1712E0E1E0F0E0EC0FFD1FE10F78
:1028D000F11D1F5F808190E0B3010E944D179A9413
:1028E00091F744FC03C085E690E002C085E490E0E7
:1028F000B3010E944D17D7FC05C0C114D10441F4A7
:1029000004FF06C0D094C194D108D3948DE201C0D5
:102910008BE290E0B3010E944D1780E305C08F5F0A
:1029200026EF3FEFC20ED31E3AE0C316D104BCF728
:1029300090E0B3010E944D17C601C096B3010E94FA
:102940004D17CC84DD8452C1933631F0933799F022
:10295000933509F059C023C0F601808189835E0157
:102960000894A11CB11C22E030E0C20ED31E21E06D
:10297000E22EF12C12C0F601A080B18016FD03C03A
:102980006FEF7FEF02C0692D70E022E030E0C20EF1
:10299000D31EC5010E9442177C011F7713C0F601A8
:1029A000A080B18016FD03C06FEF7FEF02C0692DDC
:1029B00070E022E030E0C20ED31EC5010E9437173E
:1029C0007C01106813FF07C01BC080E290E0B301D8
:1029D0000E944D178A94882D90E0E816F906A8F316
:1029E0000FC0F50117FD859117FF81915F0190E000
:1029F000B3010E944D1781108A940894E108F108F0
:102A0000E114F10471F7F2C0943611F0993689F5AA
:102A100017FF08C0F601208131814281538184E093
:102A200090E00AC0F601808191819C01442737FD26
:102A30004095542F82E090E0C80ED91E9FE6F92EF3
:102A4000F12257FF09C050954095309521953F4F91
:102A50004F4F5F4F90E8F92ACA01B901AE014F5FAD
:102A60005F4F2AE030E00E948E17E82EE889EE1AC8
:102A700041C0953721F41F7E2AE030E01CC0197F49
:102A80009F3661F0903720F4983509F0B2C00FC03E
:102A9000903739F0983709F0ACC004C028E030E036
:102AA0000AC0106114FD146020E130E004C014FD80
:102AB000166020E132E017FF08C0F60160817181E5
:102AC0008281938144E050E008C0F60180819181C9
:102AD000BC0180E090E042E050E0C40ED51EAE01A3
:102AE0004F5F5F4F0E948E17E82E5889E51A8FE7D7
:102AF000F82EF122F6FE0BC08EEFF822E91438F41E
:102B0000F4FE07C0F2FC05C09FEEF92202C01E2DA4
:102B100001C0192DF4FE0DC0FE01EE0DF11D8081E6
:102B2000803319F4E9EEFE2208C01F5FF2FE05C0F3
:102B300003C08F2D867809F01F5F0F2DF3FC14C0A2
:102B4000F0FE0FC0181510F09E2C0BC09E2C980C98
:102B5000911A182D06C080E290E0B3010E944D1733
:102B60001F5F1815C0F304C0181510F4811A01C0B6
:102B7000882404FF0FC080E390E0B3010E944D174A
:102B800002FF1DC001FD03C088E790E00EC088E58C
:102B900090E00BC0802F867891F001FF02C08BE29D
:102BA00001C080E2F7FC8DE290E0B3010E944D1776
:102BB00006C080E390E0B3010E944D179A94E91497
:102BC000C0F3EA94E1E0F0E0EC0FFD1FEE0DF11D23
:102BD000808190E0B3010E944D17EE2091F706C06E
:102BE00080E290E0B3010E944D178A948820C1F7DB
:102BF00099CCF30166817781CB016196E2E10C9477
:102C00004416AA1BBB1B51E107C0AA1FBB1FA61776
:102C1000B70710F0A61BB70B881F991F5A95A9F785
:102C200080959095BC01CD01089597FB092E07264C
:102C30000AD077FD04D0E5DF06D000201AF47095A5
:102C400061957F4F0895F6F7909581959F4F089570
:102C50002F923F924F925F926F927F928F929F92AC
:102C6000AF92BF92CF92DF92EF92FF920F931F939A
:102C7000CF93DF93CDB7DEB7CA1BDB0B0FB6F8944B
:102C8000DEBF0FBECDBF09942A88398848885F848B
:102C90006E847D848C849B84AA84B984C884DF80FC
:102CA000EE80FD800C811B81AA81B981CE0FD11DE0
:102CB0000FB6F894DEBF0FBECDBFED0108952830EA
:102CC00008F027E03327DA01990F311D87FD916065
:102CD00000966105710539F432602E5F3D9330E353
:102CE0002A95E1F708959F3F30F08038710561051E
:102CF00009F03C5F3C5F3D93913008F08068911D86
:102D0000DF93CF931F930F93FF92EF92192F987F2A
:102D10009695E92F96959695E90FFF27E154FE4F7A
:102D200099273327EE24FF24A701E7010590089493
:102D3000079428F4360FE71EF81E491F511D660F31
:102D4000771F881F991F0694A1F70590079428F410
:102D5000E70EF81E491F561FC11D770F881F991FC8
:102D6000661F0694A1F70590079428F4F80E491FF2
:102D7000561FC71FD11D880F991F661F771F069406
:102D8000A1F70590079420F4490F561FC71FD81FBD
:102D9000990F661F771F881F0694A9F784911095D5
:102DA000177041F0D695C79557954795F794E794D6
:102DB0001A95C1F7E5E6F1E0689415901591359103
:102DC0006591959105907FE27395E118F10A430BA7
:102DD000560BC90BD009C0F7E10CF11E431F561F5B
:102DE000C91FD01D7EF4703311F48A95E6CFE894A4
:102DF000015030F0080F0AF40027021708F4202FC2
:102E00002395022F7A3328F079E37D932A95E9F709
:102E100010C07D932A9589F6069497956795379506
:102E200017951794E118F10A430B560BC90BD009FB
:102E300098F023957E9173957A3308F070E37C9334
:102E40002013B8F77E9170617D9330F0839571E324
:102E50007D9370E32A95E1F71124EF90FF900F9195
:102E60001F91CF91DF91992787FD90950895FC01DF
:102E70000590615070400110D8F7809590958E0FA5
:102E80009F1F0895FC016150704001900110D8F718
:102E9000809590958E0F9F1F08950F931F93CF934A
:102EA000DF938C01EB018B8181FF1BC082FF0DC082
:102EB0002E813F818C819D812817390764F4E88138
:102EC000F9810193F983E88306C0E885F985802FAD
:102ED0000995892B31F48E819F8101969F838E8382
:102EE00002C00FEF1FEFC801DF91CF911F910F912B
:102EF0000895A0E0B0E0EFE7F7E10C943816FE018A
:102F00003596619171918091A6039091A703AF01CD
:102F10000E947A122096E2E00C945416FA01AA2735
:102F2000283051F1203181F1E8946F936E7F6E5F0C
:102F30007F4F8F4F9F4FAF4FB1E03ED0B4E03CD0BA
:102F4000670F781F891F9A1FA11D680F791F8A1F9D
:102F5000911DA11D6A0F711D811D911DA11D20D004
:102F600009F468943F912AE0269F11243019305DBE
:102F70003193DEF6CF010895462F4770405D4193AF
:102F8000B3E00FD0C9F7F6CF462F4F70405D4A33FC
:102F900018F0495D31FD4052419302D0A9F7EACFC4
:102FA000B4E0A6959795879577956795BA95C9F7F3
:102FB00000976105710508959B01AC010A2E0694E6
:102FC0005795479537952795BA95C9F7620F731F9F
:0C2FD000841F951FA01D0895F894FFCFEA
:102FDC006B616C5A2E616E676C653A20252E3266D9
:102FEC002C206B616C5A2E726174653A20252E323E
:102FFC00660A0000050A10151B20252B30353B40B6
:10300C00454A4F54595E63686D6F7072737476776E
:10301C0078797A7B7B7C7D7D7E7E7E7F7F7F7F7FD8
:10302C007F7E7E7E7D7D7C7B7B7A797877767473F0
:10303C0072706F6E7071727475767778797A7B7C3A
:10304C007C7D7D7E7E7E7F7F7F7F7F7E7E7E7D7D95
:10305C007C7C7B7A7978777675747271706E6A6520
:10306C00615C57524D48423D38332D28231D1812B0
:10307C000D0802FEF8F3EEE8E3DDD8D3CDC8C3BEED
:10308C00B8B3AEA9A49F9B9692908F8E8C8B8A8995
:10309C0088878685848483838282828181818181F1
:1030AC008282828383848485868788898A8B8C8EAE
:1030BC008F909291908E8D8C8A8988878685858455
:1030CC0083838282828181818181818282828383D6
:1030DC00848585868788898A8C8D8E909193989D1E
:1030EC00A2A7ACB1B6BBC0C5CBD0D5DBE0E5EBF04D
:1030FC00F6FB007800500100000001000000000009
:10310C00003C0F00000000000200000000580F00FF
:04311C0000000000AF
:00000001FF
