:100000000C9419010C9436010C9436010C943601B1
:100010000C9436010C9436010C9436010C94360184
:100020000C9436010C9436010C9436010C94360174
:100030000C9436010C9436010C9466020C94360133
:100040000C9436010C9436010C943B040C94690416
:100050000C9436010C9436010C9436010C94360144
:100060000C9436010C9436010000B0403333A340A9
:100070006666964033338B409A9981400000704009
:100080000000604000005040333343406666364015
:100090009A992940000020406666164000001040F2
:1000A00066660640000000403333F33FCDCCEC3FA2
:1000B0000000E03F9A99D93FCDCCCC3F6666C63F61
:1000C0000000C03F9A99B93F3333B33FCDCCAC3F2A
:1000D000CDCCAC3F6666A63F6666A63F0000A03F5B
:1000E0000000A03F9A99993F9A99993F3333933FE3
:1000F0003333933F3333933FCDCC8C3FCDCC8C3FC8
:10010000CDCC8C3FCDCC8C3FCDCC8C3F6666863F32
:100110006666863F6666863F6666863F6666863F9B
:100120006666863F6666863F0000803F0000803F2F
:100130006E616E00696E660000407A10F35A00A08E
:10014000724E18090010A5D4E80000E876481700A0
:1001500000E40B54020000CA9A3B000000E1F505E0
:10016000000080969800000040420F000000A0862A
:1001700001000000102700000000E803000000005C
:100180006400000000000A00000000000100000000
:1001900000002C76D888DC674F0823DFC1DFAE591A
:1001A000E1B1B796E5E3E453C63AE651997696E8AD
:1001B000E6C28426EB898C9B62ED407C6FFCEFBC31
:1001C0009C9F40F2BAA56FA5F490055A2AF75C935C
:1001D0006B6CF9676DC11BFCE0E40D47FEF520E692
:1001E000B500D0ED902E0300943577050080841E75
:1001F000080000204E0A000000C80C333333330FD0
:10020000986E12831141EF8D2114893BE65516CF6C
:10021000FEE6DB18D1844B381BF77C1D901DA4BB78
:10022000E424203284725E228100C9F124ECA1E52D
:100230003D2711241FBECFEFD8E0DEBFCDBF12E0B7
:10024000A0E0B1E0E4E1F7E102C005900D92AC3A24
:10025000B107D9F713E0ACEAB2E001C01D92A938AA
:10026000B107E1F70E9429040C94880B0C9400005C
:100270001092780381E080937C0380937B038093CA
:1002800077038FEF90E09093820380938103109225
:100290007E0310927D031092800310927F030895D5
:1002A0000F931F93CF93DF93C8E6D0E001E413E0F0
:1002B000FE01659175918591949123EB39EA44ECA7
:1002C00050E40E947E050E942905F80161938F0188
:1002D0002496F1E0C033DF0759F7DF91CF911F91EA
:1002E0000F9108951F93182FA62FE62FF0E0E457E3
:1002F000FE4F8081992787FD9095E62FEB5AF0E01D
:10030000E457FE4F6081772767FD7095A655B0E0F2
:10031000A457BE4F2C91332727FD3095FC01E49F55
:10032000C001E59F900DF49F900D1124E92FFF2748
:10033000E058FF4F649FC001659F900D749F900D22
:100340001124692F772760587F4F249FC001259F74
:10035000900D349F900D1124292F332720583F4FA3
:10036000112329F4E7BD68BD2093B40010C01130FB
:1003700071F4E093B300862F90E090938B0080930C
:100380008A00822F90E090938900809388001F91CB
:10039000089580E060E040E050E00E94720181E05A
:1003A00060E040E050E00E94720108950E94500118
:1003B00084B18E6084B90E9438010E94C9010895F9
:1003C0008091B5028F5F8093B502E091B502F0E0B5
:1003D000E457FE4F4081552747FD5095E091B50207
:1003E000EB5AF0E0E457FE4F8081992787FD909506
:1003F000E091B502E655F0E0E457FE4F60817727C3
:1004000067FD70952091810330918203FA01E29F8C
:10041000A001E39F500DF29F500D1124452F552749
:10042000FC01E29FC001E39F900DF29F900D11240B
:10043000E92FFF27E058FF4F629FC001639F900D97
:10044000729F900D1124292F332720583F4F405879
:100450005F4F4093B30080917B0318166CF48E2F8E
:1004600090E090938B0080938A00822F90E090938D
:1004700089008093880008958E2F90E090938900E2
:1004800080938800822F90E090938B0080938A0065
:10049000089520917F033091800380917D03909196
:1004A0007E038217930724F481E0809379030BC0C5
:1004B0002817390734F41092790381E080937A0386
:1004C00008951092790310927A0308951F920F9263
:1004D0000FB60F9211242F933F934F935F936F9317
:1004E0007F938F939F93AF93BF93EF93FF938091ED
:1004F000B7029091B80201969093B8028093B70228
:1005000080918F028823D9F10E94E00180917903C4
:10051000882391F08091B602813370F48091B70204
:100520009091B80268EC70E00E949009892B21F448
:100530008091B6028F5F15C080917A03882309F1FC
:100540008091B6028823E9F08091B7029091B802B9
:1005500068EC70E00E949009892B99F48091B602B2
:1005600081508093B6021092B8021092B702E091C7
:10057000B602F0E0EF5BFC4F808187BD02C00E94B5
:10058000C901FF91EF91BF91AF919F918F917F91A1
:100590006F915F914F913F912F910F900FBE0F90F0
:1005A0001F9018951092B9008CE08093B8000895C0
:1005B000982F84EA8093BC002FEF3FEF40E050E09B
:1005C0008091BC0087FD06C0215030404040504023
:1005D000B9F72EC0211531054105510549F180912A
:1005E000B900887F883029F0803119F021E030E0AF
:1005F00024C09093BB0084E88093BC002FEF3FEFB2
:1006000040E050E08091BC0087FD06C021503040A2
:1006100040405040B9F70CC0211531054105510546
:1006200039F08091B900887F883129F0803419F041
:100630002FEF3FEF02C020E030E0C9010895982F6E
:10064000E4EA74E864E9E093BC0020E030E08091E3
:10065000BC0087FD06C02F5F3F4F8FEF2F3F38074D
:10066000B1F78091B900887F883011F0803159F757
:100670009093BB007093BC0020E030E08091BC0000
:1006800087FD06C02F5F3F4F8FEF2F3F3807B1F731
:100690008091B900887F803211F08835A1F4609391
:1006A000BC002FEF3FEF40E050E08091BC0084FFA2
:1006B000CACF211531054105510529F2215030409D
:1006C00040405040F2CF08950E94D802089584E936
:1006D0008093BC002FEF3FEF40E050E08091BC00E2
:1006E00084FF06C02150304040405040B9F708C058
:1006F000211531054105510519F020E030E002C017
:100700002FEF3FEFC901089584E88093BC002FEFDD
:100710003FEF40E050E08091BC0087FD06C02150D3
:10072000304040405040B9F705C021153105410522
:10073000510539F480E091E00E94F50A2FEF3FEF78
:1007400004C08091BB00282F30E0C901089584ECDB
:100750008093BC002FEF3FEF40E050E08091BC0061
:1007600087FD06C02150304040405040B9F705C0D9
:10077000211531054105510539F484E291E00E94CB
:10078000F50A2FEF3FEF04C08091BB00282F30E027
:10079000C90108958093BB0084E88093BC002FEFCB
:1007A0003FEF40E050E08091BC0087FD06C0215043
:1007B000304040405040B9F705C021153105410592
:1007C000510519F488E491E00AC08091B900887F4E
:1007D000883219F420E030E006C08AE691E00E94F9
:1007E000F50A2FEF3FEFC901089516BC84B582606A
:1007F00084BD85B5836085BDEEE6F0E080818260D2
:10080000808381E387BDE0E8F0E01082A1E8B0E0FA
:100810001C9291EA908381E08C93A0EBB0E01C9253
:10082000E1EBF0E010829C9380831092B300109271
:1008300089001092880010928B0010928A0008950F
:10084000F8940E94AD040E94D6010E94F5037894AA
:100850000895CF93DF930E94200480EB94E090935F
:10086000800380937F03C0E2D3E00E944902CE015F
:100870000197F1F7FACF1F920F920FB60F92112442
:100880002F938F939F93EF93FF939091C0002091AC
:10089000C600E0913E03EF5FEF7380913F03E817DE
:1008A00011F492E007C09871E0933E03F0E0E45049
:1008B000FD4F208380914003982B90934003FF913C
:1008C000EF919F918F912F910F900FBE0F901F90DE
:1008D00018951F920F920FB60F9211248F939F932A
:1008E000EF93FF9390913C0380913D03981769F03B
:1008F000E0913D03EF5FEF73E0933D03F0E0E454DC
:10090000FD4F80818093C60005C08091C1008F7D1E
:100910008093C100FF91EF919F918F910F900FBE37
:100920000F901F9018959C0110923C0310923D036C
:1009300010923E0310923F0397FF04C082E0809321
:10094000C0003F773093C5002093C40088E98093AE
:10095000C10086E08093C200089580E190E00E948B
:1009600093048EE992E0909386038093850380E957
:1009700092E09093840380938303789408959091F8
:100980003E0380913F03981719F420E031E010C036
:10099000E0913F03EF5FEF73E0933F03F0E0E4503B
:1009A000FD4F80819091400310924003282F30E04A
:1009B000C9010895282F90913C039F5F9F738091F8
:1009C0003D039817E1F3E92FF0E0E454FD4F208355
:1009D00090933C038091C10080628093C100089590
:1009E0001F9390913E0380913F039817D1F3E091BC
:1009F0003F03EF5FEF73E0933F03F0E0E450FD4F00
:100A000010818091400310924003812F0E94DA04EC
:100A1000812F90E01F910895282F90913C039F5FB4
:100A20009F7380913D039817E1F3E92FF0E0E454C0
:100A3000FD4F208390933C038091C100806280939E
:100A4000C1002A3019F48DE00E94DA0480E090E0C1
:100A5000089533D088F09F5790F0B92F9927B75158
:100A6000A0F0D1F0660F771F881F991F1AF0BA9572
:100A7000C9F712C0B13081F03AD0B1E0089537C063
:100A8000672F782F8827B85F39F0B93FCCF3869568
:100A900077956795B395D9F73EF4909580957095C5
:100AA00061957F4F8F4F9F4F089557FD9058440F8A
:100AB000551F59F05F3F71F04795880F97FB991FBD
:100AC00061F09F3F79F0879508951216130614067A
:100AD000551FF2CF4695F1DF08C016161706180607
:100AE000991FF1CF86957105610508940895E894E2
:100AF000BB2766277727CB0197F908950BD078C0DD
:100B000069D028F06ED018F0952309F05AC05FC064
:100B10001124EECFCADFA0F3959FD1F3950F50E0DB
:100B2000551F629FF001729FBB27F00DB11D639F9F
:100B3000AA27F00DB11DAA1F649F6627B00DA11D45
:100B4000661F829F2227B00DA11D621F739FB00DEB
:100B5000A11D621F839FA00D611D221F749F33275B
:100B6000A00D611D231F849F600D211D822F762FF4
:100B70006A2F11249F5750408AF0E1F088234AF0F1
:100B8000EE0FFF1FBB1F661F771F881F915050403D
:100B9000A9F79E3F510570F014C0AACF5F3FECF358
:100BA000983EDCF3869577956795B795F795E79529
:100BB0009F5FC1F7FE2B880F911D9695879597F93A
:100BC000089597F99F6780E870E060E008959FEFCF
:100BD00080EC089500240A941616170618060906D4
:100BE000089500240A9412161306140605060895A3
:100BF000092E0394000C11F4882352F0BB0F40F42B
:100C0000BF2B11F460FF04C06F5F7F4F8F4F9F4F6A
:100C10000895A1E1B0E0EFE0F6E00C94A4093C01F6
:100C20007F876E876A01FC0117821682838181FDAE
:100C300003C06FEF7FEF6FC39E012F5F3F4F398B74
:100C4000288BF3012381EE85FF8523FD859123FF0A
:100C50008191FF87EE87882309F45AC3853251F4C6
:100C6000EE85FF8523FD859123FF8191FF87EE8728
:100C7000853229F490E0B3010E94C90AE2CF982F8F
:100C800010E0882499241032B0F49B3269F09C3231
:100C900028F4903251F0933271F40BC09D3239F048
:100CA000903349F4116028C01260146025C01860A8
:100CB00023C0106121C017FD2AC0892F80538A30BC
:100CC00078F416FF06C0FAE09F9E902C1124980E2F
:100CD00013C03AE0839E802C1124880E10620CC051
:100CE0009E3221F416FD14C3106406C09C3611F424
:100CF000106802C0983659F4EE85FF8523FD959162
:100D000023FF9191FF87EE87992309F0BCCF892FAC
:100D10008554833020F4812F8061905E07C0892F35
:100D20008556833008F09FC1812F8F7E86FD02C0DB
:100D300076E0972E6FE3F62EF822953619F4F0E45C
:100D4000FF2A07C0963619F420E8F22A02C0911053
:100D50009A94F7FE0AC03BE3391518F45CE3B52E0C
:100D600002C0B92CB39427E009C047E0491520F42C
:100D7000BB2447E0942EF7CF292DBB24C60104964F
:100D80009D878C87F6016081718182819381AE019C
:100D90004F5F5F4F0B2D0E94DB096C010981202EF4
:100DA000332400FF04C003FD02C01DE209C0F1FEB0
:100DB00002C01BE205C0F2FC02C010E001C010E25C
:100DC000C1018C709070892BB9F1112311F483E06B
:100DD00001C084E0881510F088240AC0881AF3FC4A
:100DE00007C080E290E0B3010E94C90A8A94C9F763
:100DF000112329F0812F90E0B3010E94C90A23FE3C
:100E000003C000E311E00EC004E311E00BC0E114E5
:100E1000F10409F0805290E0B3010E94C90A0F5F0B
:100E20001F4F05C0EF2CFF24F0E1EF22FF24F80153
:100E30008491882361F714C1F7FE12C0BC0C24FE14
:100E400004C08A81813309F4BA941B141CF0BB24BA
:100E5000B3942DC0F8E0FB1550F538E0B32E27C051
:100E6000F6FC25C0892D90E08C159D054CF02CEFEB
:100E7000C2162FEFD20624F030E8F32A01C09A946C
:100E8000992049F0E2E0F0E0EC0FFD1FE90DF11DC3
:100E900080818033A1F3F7FE0AC0B92CB394892D69
:100EA00090E0C816D90614F0992401C09C18F7FCEC
:100EB00003C025E030E009C01C141D041CF021E033
:100EC00030E003C096012F5F3F4F112311F02F5FD9
:100ED0003F4F992029F0892D90E00196280F391F66
:100EE000882D90E02817390714F0882401C0821A51
:100EF0004F2C5524C20189709070892B39F008C09D
:100F000080E290E0B3010E94C90A8A948820C1F768
:100F1000112329F0812F90E0B3010E94C90A43FEFA
:100F200007C008C080E390E0B3010E94C90A8A9418
:100F30008820C1F7F7FE46C08601D7FE02C000E058
:100F400010E076010894E11CF11CE01AF10A41E07E
:100F500050E04C0F5D1FE40EF51E26014B185108A2
:100F6000892D90E0AA24BB24A81AB90A5FEF0F3F8D
:100F7000150729F48EE290E0B3010E94C90AC01659
:100F8000D10634F0401651061CF4F701808101C0EF
:100F900080E3015010400894E11CF11C0A151B0568
:100FA0002CF090E0B3010E94C90AE0CF0C151D059A
:100FB00039F49A81963318F4953311F424FE81E3C1
:100FC00090E04BC08A81813309F00F7E90E0B3013D
:100FD0000E94C90A9920A1F08EE290E0B3010E941C
:100FE000C90A12E0E1E0F0E0EC0FFD1FE10FF11D96
:100FF0001F5F808190E0B3010E94C90A9A9491F723
:1010000044FC03C085E690E002C085E490E0B301B3
:101010000E94C90AD7FC05C0C114D10441F404FFE1
:1010200006C0D094C194D108D3948DE201C08BE264
:1010300090E0B3010E94C90A80E305C08F5F26EFEC
:101040003FEFC20ED31E3AE0C316D104BCF790E0C6
:10105000B3010E94C90AC601C096B3010E94C90A21
:10106000CC84DD8452C1933631F0933799F09335B7
:1010700009F059C023C0F601808189835E0108947C
:10108000A11CB11C22E030E0C20ED31E21E0E22EF2
:10109000F12C12C0F601A080B18016FD03C06FEFE5
:1010A0007FEF02C0692D70E022E030E0C20ED31E57
:1010B000C5010E94BE0A7C011F7713C0F601A08003
:1010C000B18016FD03C06FEF7FEF02C0692D70E0A5
:1010D00022E030E0C20ED31EC5010E94B30A7C019B
:1010E000106813FF07C01BC080E290E0B3010E94AC
:1010F000C90A8A94882D90E0E816F906A8F30FC073
:10110000F50117FD859117FF81915F0190E0B30113
:101110000E94C90A81108A940894E108F108E11438
:10112000F10471F7F2C0943611F0993689F517FF82
:1011300008C0F601208131814281538184E090E032
:101140000AC0F601808191819C01442737FD4095BA
:10115000542F82E090E0C80ED91E9FE6F92EF122AE
:1011600057FF09C050954095309521953F4F4F4FFF
:101170005F4F90E8F92ACA01B901AE014F5F5F4F96
:101180002AE030E00E942A0BE82EE889EE1A41C0DE
:10119000953721F41F7E2AE030E01CC0197F9F366E
:1011A00061F0903720F4983509F0B2C00FC0903745
:1011B00039F0983709F0ACC004C028E030E00AC02C
:1011C000106114FD146020E130E004C014FD1660CD
:1011D00020E132E017FF08C0F60160817181828151
:1011E000938144E050E008C0F60180819181BC0108
:1011F00080E090E042E050E0C40ED51EAE014F5FAB
:101200005F4F0E942A0BE82E5889E51A8FE7F82EC7
:10121000F122F6FE0BC08EEFF822E91438F4F4FE4A
:1012200007C0F2FC05C09FEEF92202C01E2D01C0CE
:10123000192DF4FE0DC0FE01EE0DF11D80818033ED
:1012400019F4E9EEFE2208C01F5FF2FE05C003C0DC
:101250008F2D867809F01F5F0F2DF3FC14C0F0FE70
:101260000FC0181510F09E2C0BC09E2C980C911AD4
:10127000182D06C080E290E0B3010E94C90A1F5FEA
:101280001815C0F304C0181510F4811A01C0882481
:1012900004FF0FC080E390E0B3010E94C90A02FF7F
:1012A0001DC001FD03C088E790E00EC088E590E016
:1012B0000BC0802F867891F001FF02C08BE201C045
:1012C00080E2F7FC8DE290E0B3010E94C90A06C0FB
:1012D00080E390E0B3010E94C90A9A94E914C0F334
:1012E000EA94E1E0F0E0EC0FFD1FEE0DF11D8081CE
:1012F00090E0B3010E94C90AEE2091F706C080E297
:1013000090E0B3010E94C90A8A948820C1F799CC61
:10131000F30166817781CB016196E2E10C94C0090B
:10132000AA1BBB1B51E107C0AA1FBB1FA617B7070B
:1013300010F0A61BB70B881F991F5A95A9F7809527
:101340009095BC01CD0108952F923F924F925F92EC
:101350006F927F928F929F92AF92BF92CF92DF92C5
:10136000EF92FF920F931F93CF93DF93CDB7DEB72A
:10137000CA1BDB0B0FB6F894DEBF0FBECDBF0994BE
:101380002A88398848885F846E847D848C849B8415
:10139000AA84B984C884DF80EE80FD800C811B8123
:1013A000AA81B981CE0FD11D0FB6F894DEBF0FBE52
:1013B000CDBFED010895283008F027E03327DA018A
:1013C000990F311D87FD916000966105710539F413
:1013D00032602E5F3D9330E32A95E1F708959F3FF9
:1013E00030F080387105610509F03C5F3C5F3D934A
:1013F000913008F08068911DDF93CF931F930F9376
:10140000FF92EF92192F987F9695E92F96959695D2
:10141000E90FFF27EE56FE4F99273327EE24FF24CE
:10142000A701E70105900894079428F4360FE71EFA
:10143000F81E491F511D660F771F881F991F0694BC
:10144000A1F70590079428F4E70EF81E491F561FD0
:10145000C11D770F881F991F661F0694A1F705907D
:10146000079428F4F80E491F561FC71FD11D880F77
:10147000991F661F771F0694A1F70590079420F423
:10148000490F561FC71FD81F990F661F771F881F48
:101490000694A9F784911095177041F0D695C795D9
:1014A00057954795F794E7941A95C1F7E8E3F1E06B
:1014B00068941590159135916591959105907FE20D
:1014C0007395E118F10A430B560BC90BD009C0F70D
:1014D000E10CF11E431F561FC91FD01D7EF470334F
:1014E00011F48A95E6CFE894015030F0080F0AF421
:1014F0000027021708F4202F2395022F7A3328F0B3
:1015000079E37D932A95E9F710C07D932A9589F6B2
:10151000069497956795379517951794E118F10AF2
:10152000430B560BC90BD00998F023957E91739508
:101530007A3308F070E37C932013B8F77E917061E2
:101540007D9330F0839571E37D9370E32A95E1F705
:101550001124EF90FF900F911F91CF91DF91992768
:1015600087FD90950895FC01059061507040011031
:10157000D8F7809590958E0F9F1F0895FC016150BC
:10158000704001900110D8F7809590958E0F9F1FA5
:1015900008950F931F93CF93DF938C01EB018B8101
:1015A00081FF1BC082FF0DC02E813F818C819D81F8
:1015B0002817390764F4E881F9810193F983E883F6
:1015C00006C0E885F985802F0995892B31F48E8135
:1015D0009F8101969F838E8302C00FEF1FEFC8018A
:1015E000DF91CF911F910F9108950F931F93CF9388
:1015F000DF938C01E0918503F0918603838181FF65
:1016000021C0C0E0D0E00DC0E0918503F0918603D9
:1016100020853185BF01F9010995892B11F0CFEFA4
:10162000DFEFF80181918F01882371F7E091850345
:10163000F0918603208531858AE0BF01F901099583
:10164000892B11F0CFEFDFEFCE01DF91CF911F910A
:101650000F910895FA01AA27283051F1203181F124
:10166000E8946F936E7F6E5F7F4F8F4F9F4FAF4FAA
:10167000B1E03ED0B4E03CD0670F781F891F9A1FBD
:10168000A11D680F791F8A1F911DA11D6A0F711D71
:10169000811D911DA11D20D009F468943F912AE07D
:1016A000269F11243019305D3193DEF6CF01089565
:1016B000462F4770405D4193B3E00FD0C9F7F6CF96
:1016C000462F4F70405D4A3318F0495D31FD40525E
:1016D000419302D0A9F7EACFB4E0A69597958795F4
:1016E00077956795BA95C9F70097610571050895D3
:1016F0009B01AC010A2E069457954795379527957F
:10170000BA95C9F7620F731F841F951FA01D089516
:04171000F894FFCF7B
:101714004552524F523A204932432054696D656F05
:10172400757420286932635F726561644E616B3A37
:1017340031290A004552524F523A2049324320542B
:10174400696D656F757420286932635F72656164C1
:1017540041636B3A31290A004552524F523A2049AB
:1017640032432054696D656F757420286932635F54
:1017740077726974653A31290A004552524F523AD8
:10178400204932432054696D656F7574202869328D
:10179400635F77726974653A32290A0000050A109A
:1017A400151B20252B30353B40454A4F54595E6369
:1017B400686D6F70727374767778797A7B7B7C7DD1
:1017C4007D7E7E7E7F7F7F7F7F7F7E7E7E7D7D7C34
:1017D4007B7B7A79787776747372706F6E707172BE
:1017E4007475767778797A7B7C7C7D7D7E7E7E7F4E
:1017F4007F7F7F7F7E7E7E7D7D7C7C7B7A79787720
:101804007675747271706E6A65615C57524D4842A8
:101814003D38332D28231D18120D0802FEF8F3EE6F
:10182400E8E3DDD8D3CDC8C3BEB8B3AEA9A49F9BAB
:101834009692908F8E8C8B8A898887868584848300
:101844008382828281818181818282828383848472
:1018540085868788898A8B8C8E8F909291908E8DC5
:101864008C8A898887868585848383828282818124
:101874008181818182828283838485858687888928
:101884008A8C8D8E909193989DA2A7ACB1B6BBC063
:10189400C5CBD0D5DBE0E5EBF0F6FB0078005001DA
:1018A40000000001000000000000F004000000003F
:0C18B4000002000000000C050000000015
:00000001FF
