:100000000C9430010C944D010C944D010C944D0155
:100010000C944D010C944D010C944D010C944D0128
:100020000C944D010C944D010C944D010C944D0118
:100030000C944D010C94350C0C948A0A0C944D01CF
:100040000C944D010C944D010C94F4100C9422115D
:100050000C944D010C944D010C944D010C944D01E8
:100060000C944D010C944D01084AD73B3BCE016ED8
:1000700084BCBFFDC12F3D6C74319ABD56833DDAFF
:100080003D00C77F11BED9E4BB4C3E916BAAAABE0E
:10009000000000803F0000B0403333A34066669606
:1000A0004033338B409A99814000007040000060DB
:1000B000400000504033334340666636409A9929E9
:1000C000400000204066661640000010406666064C
:1000D00040000000403333F33FCDCCEC3F0000E064
:1000E0003F9A99D93FCDCCCC3F6666C63F0000C051
:1000F0003F9A99B93F3333B33FCDCCAC3FCDCCAC75
:100100003F6666A63F6666A63F0000A03F0000A0CF
:100110003F9A99993F9A99993F3333933F33339359
:100120003F3333933FCDCC8C3FCDCC8C3FCDCC8C6B
:100130003FCDCC8C3FCDCC8C3F6666863F666686D5
:100140003F6666863F6666863F6666863F6666866B
:100150003F6666863F0000803F0000803F6E616E14
:1001600000696E660000407A10F35A00A0724E18C3
:10017000090010A5D4E80000E87648170000E40B59
:1001800054020000CA9A3B000000E1F5050000801F
:10019000969800000040420F000000A08601000079
:1001A00000102700000000E80300000000640000C9
:1001B0000000000A00000000000100000000002C08
:1001C00076D888DC674F0823DFC1DFAE59E1B1B7CD
:1001D00096E5E3E453C63AE651997696E8E6C2849A
:1001E00026EB898C9B62ED407C6FFCEFBC9C9F40B2
:1001F000F2BAA56FA5F490055A2AF75C936B6CF9D7
:10020000676DC11BFCE0E40D47FEF520E6B500D0AC
:10021000ED902E0300943577050080841E080000C1
:10022000204E0A000000C80C333333330F986E128F
:10023000831141EF8D2114893BE65516CFFEE6DB95
:1002400018D1844B381BF77C1D901DA4BBE42420DF
:100250003284725E228100C9F124ECA1E53D2700C1
:1002600011241FBECFEFD8E0DEBFCDBF12E0A0E06B
:10027000B1E0E0ECF4E302C005900D92A63BB107BB
:10028000D9F714E0A6EBB2E001C01D92A33EB1077E
:10029000E1F70E94D50F0C945E1A0C9400006F9247
:1002A0007F928F929F92AF92BF92CF92DF92EF9206
:1002B000FF920F931F93CF93DF9308C0C401B30144
:1002C0002BED3FE049EC50E40E94E3113B014C016F
:1002D00020E030E040E050E00E94A91287FDEECF20
:1002E0000AC0C401B3012BED3FE049EC50E40E9489
:1002F000E2113B014C01C401B3012BED3FE049EC9D
:1003000050E40E943014181664F3C401B3012BEDBD
:100310003FE049E450E40E94301418161CF0C0E09D
:10032000D0E00CC0C401B3012BED3FE049E450E440
:100330000E94E2113B014C01C1E0D0E06BED7FE097
:1003400089E490E4A40193010E94E2117B018C01F5
:10035000C401B30120E030E040E851E40E94711490
:10036000A80197010E9471145B016C01C401B301E3
:1003700020E030E040E850EC0E947114A8019701A1
:100380000E94711426E636E645E452E40E94E31129
:100390009B01AC01C601B5010E94AD12CD2B09F045
:1003A0009058DF91CF911F910F91FF90EF90DF90C8
:1003B000CF90BF90AF909F908F907F906F90089557
:1003C0009B01AC016BED7FE089EC9FE30E94E211A1
:1003D0000E944F0108952F923F924F925F926F9229
:1003E0007F928F929F92AF92BF92CF92DF92EF92C5
:1003F000FF920F931F93DF93CF9300D0CDB7DEB75B
:100400007B018C0119012A011A82198220E030E057
:1004100040E050E00E94A912882324F481E090E09B
:100420009A838983C801B70125E532EA48E15FE391
:100430000E947114A20191010E9471143B014C01B0
:1004400020E030E040E050E00E94A912882324F42C
:1004500097FA909497F89094C801B701A801970172
:100460000E9471145B016C01C401B301A4019301EA
:100470000E94E3119B01AC01C601B5010E94E3118A
:100480007B018C01C201B101A20191010E94711492
:100490009B01AC01C801B7010E94E3117B018C01F3
:1004A000C601B501A40193010E94E311A8019701BF
:1004B0000E94AD122BED3FE049EC5FE30E94711406
:1004C0007B018C0188249924C201B10120E030E035
:1004D00040E050E00E94A91288231CF481E0882E9D
:1004E000912CE981FA818E169F0651F06BED7FE029
:1004F00089E490E4A80197010E94E2117B018C013C
:1005000089819A81019751F4C801B7012BED3FE031
:1005100049E450E40E94E3117B018C01B701C8015A
:100520000F900F90CF91DF911F910F91FF90EF905F
:10053000DF90CF90BF90AF909F908F907F906F9003
:100540005F904F903F902F900895EF92FF920F93FE
:100550001F9320E030E040E85BE30E94711420E04C
:1005600030E040E85FE30E94E3117B018C0120E072
:1005700030E040E050E00E94A91288232CF4E0E033
:1005800070E080E060E024C0C801B701A8019701D5
:100590000E9471149B01AC010E9471149B01AC017B
:1005A0000E9471149B01AC010E9471149B01AC016B
:1005B0000E9471149B01AC010E9471149B01AC015B
:1005C0000E9471149B01AC010E947114E62F692FE7
:1005D0002E2F372F482F562FB901CA011F910F9187
:1005E000FF90EF9008956F927F928F929F92AF92BB
:1005F000BF92CF92DF92EF92FF920F931F93DF9300
:10060000CF9300D0CDB7DEB73B014C01AE014F5FB9
:100610005F4F0E941D148B019C0189819A8162E0C9
:1006200070E00E948718AB01C901B8010E943D1417
:100630007B018C0120E030E040E05FE30E94711418
:100640005B016C01C401B30120E030E040E05FE3F6
:100650000E947114A80197010E94AD129B01AC0188
:10066000C601B5010E94E3110F900F90CF91DF9169
:100670001F910F91FF90EF90DF90CF90BF90AF90C0
:100680009F908F907F906F900895EF92FF920F93BD
:100690001F93CF93DF93182FE62E042FF52E66239A
:1006A000A1F080ED0E94F307812F0E948B08802F1C
:1006B0009F2D9C01E90110E004C089910E948B08E4
:1006C0001F5F1E15D0F30E947B08DF91CF911F9111
:1006D0000F91FF90EF900895DF93CF930F92CDB7D6
:1006E000DEB7698361E0AE014F5F5F4F0E94450353
:1006F0000F90CF91DF910895DF92EF92FF920F93C9
:100700001F93CF93DF93182FD62E042FF52E662339
:1007100011F410E02AC080ED0E94F307812F0E949F
:100720008B0885E38A95F1F781ED0E94F307802F0E
:100730009F2D9C018901C0E0D0E0ED2CFF2408949E
:10074000E108F1080DC0CE15DF0519F40E94C608B6
:1007500002C00E94AC08F801808321960F5F1F4FF2
:10076000CD1588F31D2D0E947B08812FDF91CF913D
:100770001F910F91FF90EF90DF9008956F927F92FD
:100780008F929F92AF92BF92CF92DF92EF92FF92A1
:100790000F931F936C015B014A0139018BE36EE0FB
:1007A00047E453E00E947C034091470320914803B3
:1007B000942F80E030E0822B932BF601918380838D
:1007C0004091490320914A03942F80E030E0822B2E
:1007D000932BF5019183808340914B0320914C032F
:1007E000942F80E030E0822B932BF401918380835F
:1007F00040914F0320915003942F80E030E0822BF2
:10080000932BF301918380834091510320915203F4
:10081000942F80E030E0822B932BF801918380832A
:100820004091530320915403942F80E030E0822BB9
:10083000932BF701918380831F910F91FF90EF908D
:10084000DF90CF90BF90AF909F908F907F906F90F0
:1008500008952F923F924F925F926F927F928F9264
:100860009F92AF92BF92CF92DF92EF92FF920F933F
:100870001F93DF93CF93CDB7DEB72C970FB6F894C5
:10088000DEBF0FBECDBF6C015B014A0139012801FB
:1008900017011A8219821C821B821E821D821886F1
:1008A0001F821A8619861C861B86CE010196BE0100
:1008B0006D5F7F4FAE014B5F5F4F9E01295F3F4FE2
:1008C0008E01075F1F4FEBE0EE2EF12CEC0EFD1EAC
:1008D0000E94BE0369817A81882777FD8095982FD1
:1008E0000E94481320E030E040E858E30E94711471
:1008F000F60160837183828393836B817C81882777
:1009000077FD8095982F0E94481320E030E040E862
:1009100058E30E947114F50160837183828393838D
:100920006D817E81882777FD8095982F0E944813DE
:1009300020E030E040E858E30E947114F401608345
:100940007183828393836F817885665D7F4F88276B
:1009500077FD8095982F0E94481323E333E343E803
:1009600051E40E94AD12F30160837183828393830B
:1009700069857A8569507040882777FD8095982F22
:100980000E94481323E333E343E851E40E94AD128D
:10099000F20160837183828393836B857C85635EC0
:1009A0007F4F882777FD8095982F0E94481323E377
:1009B00033E343E851E40E94AD12F1016083718397
:1009C000828393832C960FB6F894DEBF0FBECDBF03
:1009D000CF91DF911F910F91FF90EF90DF90CF901B
:1009E000BF90AF909F908F907F906F905F904F904F
:1009F0003F902F900895AB0161E00E947C03089521
:100A0000FF920F931F93DF93CF930F92CDB7DEB773
:100A1000F82E062F142FBE016F5F7F4F0E94FB043C
:100A20002981112351F081E090E002C0880F991FC5
:100A30000A95E2F7622F682B0AC081E090E002C0BD
:100A4000880F991F0A95E2F7682F609562236983E2
:100A50008F2D0E946C030F90CF91DF911F910F910A
:100A6000FF9008958BE666E041E00E94000508953E
:100A70008BE666E040E00E9400050895EF92FF9249
:100A80000F931F93DF93CF930F92CDB7DEB7E82E6E
:100A9000062F142FF22E442379F11982BE016F5FC5
:100AA0007F4F0E94FB04882339F1212F30E0402F33
:100AB00050E04F5F5F4F421B530B81E090E002C05C
:100AC000880F991F1A95E2F70197042E02C0880F2C
:100AD000991F0A94E2F72F2D30E002C0220F331F36
:100AE0004A95E2F7682F6095498164238223682B39
:100AF00069838E2D0E946C030F90CF91DF911F911F
:100B00000F91FF90EF9008950E94ED0785E38A957D
:100B1000F1F788EE93E020E931E0F9013197F1F740
:100B20000197D9F70E94380580E49CE90197F1F715
:100B30008BE662E043E021E00E943E058AE162E04C
:100B400043E023E00E943E0589E164E00E946C03DB
:100B50008BE164E042E023E00E943E058CE164E02A
:100B600042E020E00E943E050895FF920F931F93FC
:100B7000DF93CF930F92CDB7DEB7F62E8A01BE0179
:100B80006F5F7F4F0E94FB0421E030E002C0220F24
:100B9000331FFA94E2F799819223F80190830F9022
:100BA000CF91DF911F910F91FF900895EF92FF92E7
:100BB0000F931F93DF93CF930F92CDB7DEB7062F1E
:100BC000142F7901442311F460E029C0BE016F5F46
:100BD0007F4F0E94FB04682F882309F1812F90E04A
:100BE000402F50E04F5F5F4F481B590B21E030E032
:100BF00002C0220F331F1A95E2F721503040042E15
:100C000002C0220F331F0A94E2F78981822390E009
:100C100002C0959587954A95E2F7F7018083862F64
:100C20000F90CF91DF911F910F91FF90EF9008955A
:100C300085E766E046E027E433E00E94D605809130
:100C4000470390E0843309F491E0892F08952F92AF
:100C50003F924F925F926F927F928F929F92AF924C
:100C6000BF92CF92DF92EF92FF920F931F93DF9389
:100C7000CF93CDB7DEB768970FB6F894DEBF0FBE3F
:100C8000CDBF5C0149835A836B837C83C901B80162
:100C9000D50150962D913D914D915C9153970E94B5
:100CA000E2119B01AC01F501648B758B868B978BF0
:100CB000C701B6010E9471149B01AC01D5011C96BD
:100CC0006D917D918D919C911F970E94E3116D8391
:100CD0007E838F839887F5016487758786879787DA
:100CE000C701B60124A135A146A157A10E947114E4
:100CF0003B014C01D5015C962D913D914D915C914C
:100D00005F970E94E211F50120A131A142A153A1F8
:100D10000E94E211D5012D913D914D915C910E946F
:100D2000E3119B01AC01C701B6010E9471149B0144
:100D3000AC01F501608D718D828D938D0E94E31160
:100D40001B012C01D50158966D937D938D939C9337
:100D50005B975C966D917D918D919C915F97A401BD
:100D600093010E94E21169877A878B879C87F5013E
:100D7000648F758F868F978F60A171A182A193A1D7
:100D8000A40193010E94E2116D877E878F87988B63
:100D9000D50190966D937D938D939C939397C70106
:100DA000B60114962D913D914D915C9117970E943B
:100DB00071149B01AC01F50164A175A186A197A1F5
:100DC0000E94E311698B7A8B8B8B9C8BD501949657
:100DD0006D937D938D939C939797C201B101189663
:100DE0002D913D914D915C911B970E94E3117B01E8
:100DF0008C01C201B101A80197010E94AD123B0113
:100E00004C016D857E858F859889A80197010E9488
:100E1000AD126D8B7E8B8F8B988F69817A818B81E0
:100E20009C812D813E814F8158850E94E2117B017A
:100E30008C01C401B301A80197010E9471149B01A8
:100E4000AC016D817E818F8198850E94E311F5014F
:100E500064877587868797876D897E898F89988D46
:100E6000A80197010E9471149B01AC01D501509615
:100E70006D917D918D919C9153970E94E311F501A5
:100E8000608B718B828B938BC401B301A2019101A2
:100E90000E9471149B01AC01C201B1010E94E211D8
:100EA000D50158966D937D938D939C935B97C40168
:100EB000B30129853A854B855C850E9471149B019D
:100EC000AC0169857A858B859C850E94E211F501CC
:100ED000648F758F868F978F6D897E898F89988DA6
:100EE000A20191010E9471149B01AC016D857E8568
:100EF0008F8598890E94E211D50190966D937D931C
:100F00008D939C9393976D897E898F89988D298580
:100F10003A854B855C850E9471149B01AC016989FF
:100F20007A898B899C890E94E211F50164A375A3DB
:100F300086A397A368960FB6F894DEBF0FBECDBF09
:100F4000CF91DF911F910F91FF90EF90DF90CF90A5
:100F5000BF90AF909F908F907F906F905F904F90D9
:100F60003F902F900895FC0120E030E040E050E0F9
:100F70002487358746875787208B318B428B538B4D
:100F8000248B358B468B578B8FE692E1A3E8BAE32F
:100F900080839183A283B38386EA9BE9A4E4BBE3C5
:100FA00084839583A683B7838FE892ECA5EFBCE397
:100FB00080879187A287B387208F318F428F538F8D
:100FC000248F358F468F578F20A331A342A353A37D
:100FD00024A335A346A357A308951092B90088E42B
:100FE0008093B8000895982F84EA8093BC002FEF77
:100FF00030E040E050E08091BC0087FF07C0211541
:1010000031054105510509F431C005C021503109B0
:101010004109510980F78091B900887F883011F02B
:10102000803121F59093BB0084E88093BC002FEFC2
:1010300030E040E050E08091BC0087FF06C0211501
:1010400031054105510591F005C021503109410993
:10105000510988F79091B900987F983111F480E098
:10106000089580E0903419F081E0089581E00895BA
:10107000982F64EA54E844E96093BC0020E030E033
:101080008091BC0087FD06C02F5F3F4F81E020307C
:101090003807B1F78091B900887F883011F080312E
:1010A00059F79093BB005093BC0020E030E0809152
:1010B000BC0087FD06C02F5F3F4F81E0203038071E
:1010C000B1F78091B900887F803211F0883579F4CA
:1010D0004093BC0020E030E08091BC0084FFCCCF86
:1010E0002F5F3F4F81E020303807B1F7C5CF08951B
:1010F0000E94F307089584E98093BC0020E030E06B
:101100008091BC0084FF06C02F5F3F4F81E02030FC
:101110003807B1F708958093BB0084E88093BC0042
:101120002FEF30E040E050E08091BC0087FF06C028
:10113000211531054105510561F005C021503109E6
:101140004109510988F78091B90090E0887F883281
:1011500009F091E0892F089584EC8093BC002FEF73
:1011600030E040E050E08091BC0087FF07C02115CF
:1011700031054105510539F480E0089521503109C8
:101180004109510980F78091BB00089584E880935C
:10119000BC002FEF30E040E050E08091BC0087FFC2
:1011A00007C0211531054105510539F480E0089546
:1011B000215031094109510980F78091BB00089500
:1011C0001092510481E0809355048093540410924E
:1011D0004F048FEF90E090935F0480935E0480E073
:1011E00090E0A0E0B0E08093560490935704A09361
:1011F0005804B093590480935A0490935B04A093CD
:101200005C04B0935D04109250041092B60282E325
:1012100087BD08951F93182FA62FE62FF0E0ED56F7
:10122000FE4F8081992787FD9095E62FEB5AF0E0DD
:10123000ED56FE4F6081772767FD7095A655B0E0AB
:10124000AD56BE4F2C91332727FD3095FC01E49F0E
:10125000C001E59F900DF49F900D1124E92FFF2709
:10126000E058FF4F649FC001659F900D749F900DE3
:101270001124692F772760587F4F249FC001259F35
:10128000900D349F900D1124292F332720583F4F64
:10129000112329F4E7BD68BD2093B40010C01130BC
:1012A00071F4E093B300862F90E090938B008093CD
:1012B0008A00822F90E090938900809388001F918C
:1012C00008958091B9028F5F8093B9026091B9024D
:1012D00081E040E050E00E940A0908958091B9023F
:1012E0008F5F8093B902E091B902F0E0ED56FE4FB6
:1012F0004081552747FD5095E091B902EB5AF0E047
:10130000ED56FE4F8081992787FD9095E091B902B7
:10131000E655F0E0ED56FE4F6081772767FD70954A
:1013200020915E0430915F04FA01E29FA001E39FE7
:10133000500DF29F500D1124452F5527FC01E29FBF
:10134000C001E39F900DF29F900D1124E92FFF271C
:10135000E058FF4F629FC001639F900D729F900DF8
:101360001124292F332720583F4F40585F4F409377
:10137000B3008091540418166CF48E2F90E0909373
:101380008B0080938A00822F90E090938900809355
:10139000880008958E2F90E09093890080938800B4
:1013A000822F90E090938B0080938A0008959F9203
:1013B000AF92BF92CF92DF92EF92FF920F931F9363
:1013C00080914F04882309F489C0809150048823B8
:1013D00021F081508093500420C0809151048823D3
:1013E00009F06DC020915504809154042817C1F074
:1013F00080E090E0A0E0B0E0809356049093570422
:10140000A0935804B09359041092B6022093540448
:1014100088E2809350040E9461091092BA0270C061
:10142000992493949092BA02A0905A04B0905B04CD
:10143000C0905C04D0905D04E0905604F090570496
:101440000091580410915904C601B501A8019701F3
:101450000E94301418161CF4909252040FC0C6015A
:10146000B501A80197010E94A91288232CF41092BB
:1014700052049092530404C01092520410925304E8
:1014800067B570E06F5F7F4F882777FD8095982F55
:101490000E9448139B01AC016091960270919702E3
:1014A00080919802909199020E94AD126093560427
:1014B00070935704809358049093590421C080E09E
:1014C00090E0A0E0B0E08093560490935704A0937E
:1014D0005804B09359041092B6029FCF0E9461093C
:1014E0001092BA0280E090E0A0E0B0E08093560451
:1014F00090935704A0935804B09359041092B602E5
:101500001F910F91FF90EF90DF90CF90BF90AF9021
:101510009F9008951F920F920FB60F9211242F9350
:101520003F934F935F936F937F938F939F93AF936B
:10153000BF93EF93FF938091B7029091B802019609
:101540009093B8028093B7028091BA028823D9F1B0
:101550000E946E0980915204882391F08091B60216
:10156000813370F48091B7029091B80268EC70E01A
:101570000E947318892B21F48091B6028F5F15C0E9
:1015800080915304882329F18091B602882309F1C0
:101590008091B7029091B80268EC70E00E947318D5
:1015A000892BB9F48091B60281508093B6021092D3
:1015B000B8021092B702E091B602F0E0EB5AFC4F8D
:1015C000808187BD06C080915104882311F40E9458
:1015D0006109FF91EF91BF91AF919F918F917F91A1
:1015E0006F915F914F913F912F910F900FBE0F9090
:1015F0001F90189500D000D000D0EDB7FEB73196FF
:1016000080E091E0ADB7BEB712969C938E93119790
:1016100080914F04992787FD9095938382838091D1
:101620005004992787FD9095958384830E94EB1938
:1016300000D0EDB7FEB731968DE191E0ADB7BEB702
:1016400012969C938E93119780915E0490915F0403
:101650009383828380915204992787FD9095958387
:10166000848380915304992787FD9095978386837F
:101670000E94EB1900D0EDB7FEB731968EE391E0F2
:10168000ADB7BEB712969C938E9311978091560476
:1016900090915704A0915804B09159048283938388
:1016A000A483B58380915A0490915B04A0915C045B
:1016B000B0915D0486839783A087B1870E94EB1960
:1016C0000F900F900F900F90EDB7FEB7319680E618
:1016D00091E0ADB7BEB712969C938E93119780910F
:1016E0005404992787FD90959383828380915504B4
:1016F000992787FD9095958384830E94EB198DB778
:101700009EB706960FB6F8949EBF0FBE8DBF089584
:10171000CF92DF92EF92FF920F931F93CF93DF93BD
:1017200005E910E0C0E0D0E096E8E92E91E0F92E5E
:10173000F801659175918591949126E938E140E62B
:1017400051E40E9471140E941A13FE01EB5AFC4FDF
:10175000608300D000D000D0EDB7FEB73196ADB7B2
:10176000BEB71296FC92EE921197D383C283648324
:1017700015820E94EB1921960C5F1F4FEDB7FEB743
:1017800036960FB6F894FEBF0FBEEDBFC233D1053B
:1017900079F6E0909602F0909702009198021091ED
:1017A0009902C5E5D3E087E8C82E83E0D82E699179
:1017B00070E06F5F7F4F882777FD8095982F0E949C
:1017C00048139B01AC01C801B7010E94AD12D601BC
:1017D0006D937D938D939D936D01B3E0C738DB07C7
:1017E00031F7DF91CF911F910F91FF90EF90DF9034
:1017F000CF9008950E94880B84B18E6084B90E94B6
:10180000E0080E946109089516BC84B5826084BD19
:1018100085B5836085BDEEE6F0E0808182608083DF
:1018200081E387BDE0E8F0E01082A1E8B0E01C921F
:1018300091EA908381E08C93A0EBB0E01C92E1EB05
:10184000F0E010829C9380831092B3001092890084
:101850001092880010928B0010928A00EFE6F0E060
:10186000108280818160808308951F920F920FB64D
:101870000F9211245F936F937F938F939F93AF93F6
:10188000BF938091BE029091BF0201969093BF02D8
:101890008093BE028091BE029091BF028F719070C2
:1018A000892B49F48091C0029091C10201969093D6
:1018B000C1028093C0028091BE029091BF028F71DD
:1018C0009070892B69F48091C0029091C1026AE006
:1018D00070E00E948718892B19F481E08093BB0285
:1018E0008091BE029091BF028F719070892B89F414
:1018F0008091C0029091C10268EE73E00E94871847
:10190000892B39F41092C1021092C00281E08093B9
:10191000BC02BF91AF919F918F917F916F915F9129
:101920000F900FBE0F901F9018952F923F924F92DD
:101930005F926F927F928F929F92AF92BF92CF925F
:10194000DF92EF92FF920F931F93DF93CF93CDB768
:10195000DEB7A0970FB6F894DEBF0FBECDBF20E074
:1019600030E040E050E029833A834B835C832D8351
:101970003E834F83588729873A874B875C872D871B
:101980003E874F87588B298B3A8B4B8B5C8B2D8BEB
:101990003E8B4F8B588FAA2797FDA095BA2FBC017D
:1019A000CD010E94481320E030E04AE754E40E9451
:1019B000AD126D8F7E8F8F8F98A3CE010196BE01E1
:1019C0006B5F7F4FAE01475F5F4F9E01235F3F4FCD
:1019D0008E010F5E1F4FE5E1EE2EF12CEC0EFD1E89
:1019E0000E94290469847A848B849C84C401B30195
:1019F00020E030E040E050E00E94301418161CF067
:101A000055245A9402C055245394AD80BE80CF8093
:101A1000D884E980FA800B811C81C801B7012FE6C8
:101A200032E143E85AE30E947114A80197010E9431
:101A300071147B018C01C401B301A40193010E94C4
:101A400071149B01AC01C801B7010E94E3110E940F
:101A5000F3027B018C01652D772767FD7095872F39
:101A6000972F0E944813A80197010E9471149B01AF
:101A7000AC01C601B5010E94EB0120ED3FE049E455
:101A800050E40E94E21121EE3EE245E652E40E945B
:101A900071141B012C01A980BA80CB80DC80D7FA9D
:101AA000D094D7F8D0942D813E814F815885E98418
:101AB000FA840B851C85CA01B9010E9471143B018F
:101AC0004C01C801B701A80197010E9471149B0144
:101AD000AC01C401B3010E94E3110E94F3029B0117
:101AE000AC01C601B5010E94561221EE3EE245E668
:101AF00052E40E947114698F7A8F8B8F9C8F698159
:101B00007A818B819C812D813E814F8158850E94F5
:101B1000EB0120ED3FE049E450E40E94E21121EEA8
:101B20003EE245E652E40E94711420E030E04EECC3
:101B300052E40E94E3113B014C0120E030E044E319
:101B400053EC0E94A912882354F4C401B30120E08D
:101B500030E044EB53E40E94E3113B014C01C2012D
:101B6000B10120E030E044EB52EC0E94A91288233E
:101B700084F460916C0470916D0480916E04909176
:101B80006F0420E030E044EB52E40E943014181659
:101B9000D4F0C201B10120E030E044EB52E40E94F5
:101BA00030141816CCF460916C0470916D0480911F
:101BB0006E0490916F0420E030E044EB52EC0E9400
:101BC000A91288234CF420926C0430926D04409248
:101BD0006E0450926F0410C00D851E852F853889C4
:101BE00080E694E0B201A101ED8DFE8DAF8DB8A12C
:101BF0006F017D010E942706698D7A8D8B8D9C8DEA
:101C000020E030E044EB52EC0E94A912882384F4D7
:101C1000609194047091950480919604909197043A
:101C200020E030E044EB52E40E9430141816E4F057
:101C3000698D7A8D8B8D9C8D20E030E044EB52E4F1
:101C40000E9430141816ECF460919404709195047D
:101C5000809196049091970420E030E044EB52ECA0
:101C60000E94A91288236CF4898D9A8DAB8DBC8D4E
:101C70008093940490939504A0939604B093970452
:101C800012C009891A892B893C8988E894E0498D1A
:101C90005A8D6B8D7C8DED8DFE8DAF8DB8A16F0152
:101CA0007D010E942706C401B30120E030E044EB2F
:101CB00052EC0E94A912882384F46091BC047091B4
:101CC000BD048091BE049091BF0420E030E044EB5D
:101CD00052E40E9430141816D4F0C401B30120E07D
:101CE00030E044EB52E40E9430141816CCF46091BA
:101CF000BC047091BD048091BE049091BF0420E0AB
:101D000030E044EB52EC0E94A91288234CF460921C
:101D1000BC047092BD048092BE049092BF0410C0B7
:101D20000D891E892F89388D80EB94E0B401A301C1
:101D3000ED8DFE8DAF8DB8A16F017D010E9427064C
:101D4000A0960FB6F894DEBF0FBECDBFCF91DF9146
:101D50001F910F91FF90EF90DF90CF90BF90AF90C9
:101D60009F908F907F906F905F904F903F902F90BB
:101D700008955F926F927F928F929F92AF92BF92DF
:101D8000CF92DF92EF92FF920F931F93DF93CF9347
:101D9000CDB7DEB768970FB6F894DEBF0FBECDBFE4
:101DA00080E694E00E94B30788E894E00E94B307BD
:101DB00080EB94E00E94B30780E090E0A0E0B0E008
:101DC00089839A83AB83BC838D839E83AF83B887DB
:101DD00089879A87AB87BC878D879E87AF87B88BAB
:101DE000898B9A8BAB8BBC8B8D8B9E8BAF8BB88F7B
:101DF000CE010196BE016B5F7F4FAE01475F5F4F23
:101E00009E01235F3F4F8E010F5E1F4FF5E1EF2EC6
:101E1000F12CEC0EFD1E0E94290469847A848B84C7
:101E20009C84C401B30120E030E040E050E00E9417
:101E3000301418161CF055245A9402C0552453949B
:101E4000AD80BE80CF80D884E980FA800B811C8170
:101E5000C801B7012FE632E143E85AE30E9471144A
:101E6000A80197010E9471147B018C01C401B30188
:101E7000A40193010E9471149B01AC01C801B70138
:101E80000E94E3110E94F3027B018C01652D7727EC
:101E900067FD7095872F972F0E944813A80197011F
:101EA0000E9471149B01AC01C601B5010E94EB01B7
:101EB00020ED3FE049E450E40E94E21121EE3EE2D1
:101EC00045E652E40E94711460936C0470936D04B3
:101ED00080936E0490936F0469817A818B819C81D9
:101EE000905829853A854B855C850E94EB0120ED51
:101EF0003FE049E450E40E94E21121EE3EE245E673
:101F000052E40E947114609394047093950480933A
:101F100096049093970469817A818B819C812D81AD
:101F20003E814F8158850E94EB0120ED3FE049E45E
:101F300050E40E94E21121EE3EE245E652E40E94A6
:101F400071146093BC047093BD048093BE0490939D
:101F5000BF0468960FB6F894DEBF0FBECDBFCF9119
:101F6000DF911F910F91FF90EF90DF90CF90BF9086
:101F7000AF909F908F907F906F905F9008950E9498
:101F8000E0080895F8940E9466110E9484050E945A
:101F9000B90E80E49CE90197F1F70E9498100E9425
:101FA000FA0B0E94040C789408955F926F927F92CE
:101FB0008F929F92AF92BF92CF92DF92EF92FF9259
:101FC0000F931F93CF93DF930E94C20F00E010E0A6
:101FD000C0E4DCE9CE010197F1F78AE090E00E94CD
:101FE000950C0F5F1F4F0F3F1105A1F780E090E0A8
:101FF000A8ECB4E480935A0490935B04A0935C042F
:10200000B0935D0481E080934F04C0E0D0E0B0E97C
:102010006B2EB1E07B2E552453940F2EF0E0AF2EA3
:10202000F0E0BF2EF8ECCF2EF4E4DF2EF02DA0E28E
:102030008A2EA3E09A2E0E94D7098091BD028823A0
:1020400059F00E94E00880E29EE4F3013197F1F735
:102050000197D9F71092BD028091BB02882309F441
:102060005BC0609156047091570480915804909120
:10207000590420E030E849E854E40E94301418166E
:1020800084F4219681E0C039D80719F410925504E0
:1020900008C083E0C032D80721F450925504C0E054
:1020A000D0E08AE090E00E94950C1092BB02609113
:1020B0006C0470916D0480916E0490916F04209176
:1020C0009404309195044091960450919704E090C7
:1020D000BC04F090BD040091BE041091BF040E94A6
:1020E000A4108091D804882349F080914F04813056
:1020F00099F48093BD0210924F040EC08091BD02EE
:10210000882351F450924F04A0925A04B0925B0479
:10211000C0925C04D0925D048091BC02882321F0BF
:102120001092BC020E94FA0AC4010197F1F783CF12
:1021300081E08093DC041092D8041092D9041092AC
:10214000DA041092DB040895EF92FF920F931F932D
:10215000CA01B9010E9415139B01AC01CB01439642
:10216000879720F481E08093D8040AC0C90137FF23
:1021700003C0909581959F4F4F9714F01092D8040B
:10218000C801B70120E030E048EC51EC0E94A912F0
:10219000882344F41092DC0481E08093DA041092E6
:1021A000D90411C0C801B70120E030E040E751E494
:1021B0000E943014181654F41092DC0481E08093CD
:1021C000D9041092DA041092DB0409C01092DC04E6
:1021D0001092DA041092D90481E08093DB041F91FD
:1021E0000F91FF90EF9008951F920F920FB60F92EC
:1021F00011242F938F939F93EF93FF939091C0009F
:102200002091C600E0914403EF5FEF738091450396
:10221000E81711F492E007C09871E0934403F0E0EE
:10222000EE5FFC4F208380914603982B90934603EA
:10223000FF91EF919F918F912F910F900FBE0F9073
:102240001F9018951F920F920FB60F9211248F9323
:102250009F93EF93FF9390914203809143039817CC
:1022600069F0E0914303EF5FEF73E0934303F0E025
:10227000EE53FD4F80818093C60005C08091C10060
:102280008F7D8093C100FF91EF919F918F910F906F
:102290000FBE0F901F9018959C0110924203109250
:1022A0004303109244031092450397FF04C082E059
:1022B0008093C0003F773093C5002093C40088E925
:1022C0008093C10086E08093C200089580E190E091
:1022D0000E944C1188EA92E09093E0048093DF041E
:1022E0008AE992E09093DE048093DD047894089567
:1022F0009091440380914503981719F420E031E050
:1023000010C0E0914503EF5FEF73E0934503F0E009
:10231000EE5FFC4F80819091460310924603282F78
:1023200030E0C9010895282F909142039F5F9F7369
:10233000809143039817E1F3E92FF0E0EE53FD4F4E
:102340002083909342038091C10080628093C100FA
:1023500008951F9390914403809145039817D1F3FA
:10236000E0914503EF5FEF73E0934503F0E0EE5F2C
:10237000FC4F10818091460310924603812F0E94EA
:102380009311812F90E01F910895282F909142037F
:102390009F5F9F73809143039817E1F3E92FF0E06B
:1023A000EE53FD4F2083909342038091C1008062E1
:1023B0008093C1002A3019F48DE00E94931180E0CF
:1023C00090E008955058BB27AA270ED0FCC1EDD14C
:1023D00030F0F2D120F031F49F3F11F41EF4BDC172
:1023E0000EF4E095E7FBB3C1E92FFED180F3BA17F5
:1023F000620773078407950718F071F49EF516C2FB
:102400000EF4E0950B2EBA2FA02D0B01B90190010F
:102410000C01CA01A0011124FF27591B99F0593F53
:1024200050F4503E68F11A16F040A22F232F342F9B
:102430004427585FF3CF469537952795A795F040E9
:102440005395C9F77EF41F16BA0B620B730B840BFE
:10245000BAF09150A1F0FF0FBB1F661F771F881FB6
:10246000C2F70EC0BA0F621F731F841F48F487950E
:1024700077956795B795F7959E3F08F0B3CF9395FD
:10248000880F08F09927EE0F9795879508958DD1BD
:1024900058F080E891E009F49EEF8ED128F040E8F2
:1024A00051E059F45EEF09C058C1C0C1E92FE0788E
:1024B0009BD168F3092E052AC1F326173707480771
:1024C000590738F00E2E07F8E02569F0E025E064A2
:1024D0000AC0EF6307F8009407FADB01B9019D0118
:1024E000DC01CA01AD01EF9347D06DD10AD05F91F5
:1024F000552331F02BED3FE049E450FD49EC63CF2B
:102500000895DF93DD27B92FBF7740E85FE3161604
:10251000170648075B0710F4D92FA6D19F938F9316
:102520007F936F9341D2E8E6F0E01AD14CD12F911E
:102530003F914F915F91E1D1DD2349F09058A2EA9C
:102540002AED3FE049EC5FE3D0785D274DDFDF9176
:102550003AC1D9D008F481E008950CD034C12CD10F
:1025600040F023D130F021F45F3F19F0F0C0511159
:102570005EC1F3C039D198F39923C9F35523B1F360
:10258000951B550BBB27AA2762177307840738F0E2
:102590009F5F5F4F220F331F441FAA1FA9F333D041
:1025A0000E2E3AF0E0E830D091505040E695001CF5
:1025B000CAF729D0FE2F27D0660F771F881FBB1FB1
:1025C000261737074807AB07B0E809F0BB0B802D8B
:1025D000BF01FF2793585F4F2AF09E3F510568F0D7
:1025E000B6C025C15F3FECF3983EDCF38695779546
:1025F0006795B795F7959F5FC9F7880F911D9695D9
:10260000879597F90895E1E0660F771F881FBB1F34
:10261000621773078407BA0720F0621B730B840BE1
:10262000BA0BEE1F88F7E095089504D06894B111B5
:10263000FEC00895E1D088F09F5790F0B92F9927F8
:10264000B751A0F0D1F0660F771F881F991F1AF0BD
:10265000BA95C9F712C0B13081F0E8D0B1E0089561
:10266000E5C0672F782F8827B85F39F0B93FCCF3E2
:10267000869577956795B395D9F73EF490958095B3
:10268000709561957F4F8F4F9F4F0895E89409C0D3
:1026900097FB3EF490958095709561957F4F8F4F95
:1026A0009F4F9923A9F0F92F96E9BB279395F695AB
:1026B000879577956795B795F111F8CFFAF4BB0F29
:1026C00011F460FF1BC06F5F7F4F8F4F9F4F16C08D
:1026D000882311F096E911C0772321F09EE8872F17
:1026E000762F05C0662371F096E8862F70E060E0D3
:1026F0002AF09A95660F771F881FDAF7880F96954C
:10270000879597F90895990F0008550FAA0BE0E8EF
:10271000FEEF16161706E807F907C0F012161306A3
:10272000E407F50798F0621B730B840B950B39F4E3
:102730000A2661F0232B242B252B21F408950A2649
:1027400009F4A140A6958FEF811D811D089597F989
:102750009F6780E870E060E008959FEF80EC089547
:10276000DF93CF931F930F93FF92EF92DF927B0142
:102770008C01689405C0DA2EEF01BFD0FE01E89409
:10278000A5912591359145915591AEF3EF012CDE40
:10279000FE019701A801DA9479F7DF90EF90FF909E
:1027A0000F911F91CF91DF91089500240A9416167E
:1027B000170618060906089500240A94121613062F
:1027C000140605060895092E0394000C11F48823BD
:1027D00052F0BB0F40F4BF2B11F460FF04C06F5FD9
:1027E0007F4F8F4F9F4F089557FD9058440F551FAF
:1027F00059F05F3F71F04795880F97FB991F61F083
:102800009F3F79F087950895121613061406551FF9
:10281000F2CF4695F1DF08C0161617061806991F65
:10282000F1CF86957105610508940895E894BB275A
:1028300066277727CB0197F90895FA011082118254
:10284000DBDF68F0992349F09E57550B87FFBDD019
:102850009083518311248F779FE397F90895A7C040
:1028600052DF08F48FEF08959B01AC0160E070E047
:1028700080E89FE372CE6BCF9AC0BEDFE8F3992366
:10288000D9F3940F511DBBF39150504094F059F07F
:10289000882332F0660F771F881F91505040C1F790
:1028A0009E3F510544F7880F911D9695879597F99E
:1028B00008955F3FACF0983E9CF0BB2786957795D6
:1028C0006795B79508F4B1609395C1F7BB0F58F7BA
:1028D00011F460FFE8CF6F5F7F4F8F4F9F4FE3CFC3
:1028E000A6CF0BD070CF61DF28F066DF18F09523FC
:1028F00009F02DCF32CF11249ACF76DFA0F3959F28
:10290000D1F3950F50E0551F629FF001729FBB27D6
:10291000F00DB11D639FAA27F00DB11DAA1F649F82
:102920006627B00DA11D661F829F2227B00DA11D35
:10293000621F739FB00DA11D621F839FA00D611DBB
:10294000221F749F3327A00D611D231F849F600DDC
:10295000211D822F762F6A2F11249F5750408AF015
:10296000E1F088234AF0EE0FFF1FBB1F661F771FA1
:10297000881F91505040A9F79E3F510570F0E7CE57
:1029800056CF5F3FECF3983EDCF3869577956795DD
:10299000B795F795E7959F5FC1F7FE2B880F911DBF
:1029A0009695879597F908959B01AC019ACF9F3F23
:1029B00031F0915020F4879577956795B795880FFA
:1029C000911D9695879597F9089591505040660FFF
:1029D000771F881FD2F70895A1E1B0E0E2EFF4E19C
:1029E0000C949A183C017F876E876A01FC0117825C
:1029F0001682838181FD03C06FEF7FEF6FC39E015D
:102A00002F5F3F4F398B288BF3012381EE85FF85A4
:102A100023FD859123FF8191FF87EE87882309F4A9
:102A20005AC3853251F4EE85FF8523FD859123FF3E
:102A30008191FF87EE87853229F490E0B3010E94EF
:102A4000BF19E2CF982F10E0882499241032B0F4F7
:102A50009B3269F09C3228F4903251F0933271F439
:102A60000BC09D3239F0903349F4116028C01260D8
:102A7000146025C0186023C0106121C017FD2AC052
:102A8000892F80538A3078F416FF06C0FAE09F9EA3
:102A9000902C1124980E13C03AE0839E802C1124B0
:102AA000880E10620CC09E3221F416FD14C310640F
:102AB00006C09C3611F4106802C0983659F4EE85B1
:102AC000FF8523FD959123FF9191FF87EE87992341
:102AD00009F0BCCF892F8554833020F4812F806189
:102AE000905E07C0892F8556833008F09FC1812FE3
:102AF0008F7E86FD02C076E0972E6FE3F62EF822D9
:102B0000953619F4F0E4FF2A07C0963619F420E848
:102B1000F22A02C091109A94F7FE0AC03BE33915DD
:102B200018F45CE3B52E02C0B92CB39427E009C0B9
:102B300047E0491520F4BB2447E0942EF7CF292D18
:102B4000BB24C60104969D878C87F6016081718144
:102B500082819381AE014F5F5F4F0B2D0E94D11890
:102B60006C010981202E332400FF04C003FD02C044
:102B70001DE209C0F1FE02C01BE205C0F2FC02C06A
:102B800010E001C010E2C1018C709070892BB9F186
:102B9000112311F483E001C084E0881510F088242B
:102BA0000AC0881AF3FC07C080E290E0B3010E94DB
:102BB000BF198A94C9F7112329F0812F90E0B3013E
:102BC0000E94BF1923FE03C00DE511E00EC001E60F
:102BD00011E00BC0E114F10409F0805290E0B30160
:102BE0000E94BF190F5F1F4F05C0EF2CFF24F0E1BB
:102BF000EF22FF24F8018491882361F714C1F7FEC6
:102C000012C0BC0C24FE04C08A81813309F4BA943A
:102C10001B141CF0BB24B3942DC0F8E0FB1550F539
:102C200038E0B32E27C0F6FC25C0892D90E08C1526
:102C30009D054CF02CEFC2162FEFD20624F030E8A1
:102C4000F32A01C09A94992049F0E2E0F0E0EC0FF9
:102C5000FD1FE90DF11D80818033A1F3F7FE0AC04D
:102C6000B92CB394892D90E0C816D90614F0992494
:102C700001C09C18F7FC03C025E030E009C01C141B
:102C80001D041CF021E030E003C096012F5F3F4F90
:102C9000112311F02F5F3F4F992029F0892D90E0EB
:102CA0000196280F391F882D90E02817390714F056
:102CB000882401C0821A4F2C5524C201897090705B
:102CC000892B39F008C080E290E0B3010E94BF195F
:102CD0008A948820C1F7112329F0812F90E0B30155
:102CE0000E94BF1943FE07C008C080E390E0B30113
:102CF0000E94BF198A948820C1F7F7FE46C086015A
:102D0000D7FE02C000E010E076010894E11CF11C3F
:102D1000E01AF10A41E050E04C0F5D1FE40EF51E91
:102D200026014B185108892D90E0AA24BB24A81A2B
:102D3000B90A5FEF0F3F150729F48EE290E0B30167
:102D40000E94BF19C016D10634F0401651061CF47B
:102D5000F701808101C080E3015010400894E11C1C
:102D6000F11C0A151B052CF090E0B3010E94BF195D
:102D7000E0CF0C151D0539F49A81963318F495337C
:102D800011F424FE81E390E04BC08A81813309F085
:102D90000F7E90E0B3010E94BF199920A1F08EE24E
:102DA00090E0B3010E94BF1912E0E1E0F0E0EC0F07
:102DB000FD1FE10FF11D1F5F808190E0B3010E94B4
:102DC000BF199A9491F744FC03C085E690E002C0D5
:102DD00085E490E0B3010E94BF19D7FC05C0C1147F
:102DE000D10441F404FF06C0D094C194D108D39417
:102DF0008DE201C08BE290E0B3010E94BF1980E335
:102E000005C08F5F26EF3FEFC20ED31E3AE0C31618
:102E1000D104BCF790E0B3010E94BF19C601C0966F
:102E2000B3010E94BF19CC84DD8452C1933631F0C6
:102E3000933799F0933509F059C023C0F60180818A
:102E400089835E010894A11CB11C22E030E0C20E0F
:102E5000D31E21E0E22EF12C12C0F601A080B18039
:102E600016FD03C06FEF7FEF02C0692D70E022E016
:102E700030E0C20ED31EC5010E94B4197C011F7739
:102E800013C0F601A080B18016FD03C06FEF7FEF85
:102E900002C0692D70E022E030E0C20ED31EC501F1
:102EA0000E94A9197C01106813FF07C01BC080E2B3
:102EB00090E0B3010E94BF198A94882D90E0E81633
:102EC000F906A8F30FC0F50117FD859117FF819151
:102ED0005F0190E0B3010E94BF1981108A940894A9
:102EE000E108F108E114F10471F7F2C0943611F031
:102EF000993689F517FF08C0F6012081318142819A
:102F0000538184E090E00AC0F601808191819C01A8
:102F1000442737FD4095542F82E090E0C80ED91E1B
:102F20009FE6F92EF12257FF09C050954095309544
:102F300021953F4F4F4F5F4F90E8F92ACA01B901E1
:102F4000AE014F5F5F4F2AE030E00E94001AE82E8A
:102F5000E889EE1A41C0953721F41F7E2AE030E05F
:102F60001CC0197F9F3661F0903720F4983509F026
:102F7000B2C00FC0903739F0983709F0ACC004C028
:102F800028E030E00AC0106114FD146020E130E058
:102F900004C014FD166020E132E017FF08C0F601FE
:102FA000608171818281938144E050E008C0F60124
:102FB00080819181BC0180E090E042E050E0C40E4D
:102FC000D51EAE014F5F5F4F0E94001AE82E588950
:102FD000E51A8FE7F82EF122F6FE0BC08EEFF822ED
:102FE000E91438F4F4FE07C0F2FC05C09FEEF922A4
:102FF00002C01E2D01C0192DF4FE0DC0FE01EE0D04
:10300000F11D8081803319F4E9EEFE2208C01F5FB4
:10301000F2FE05C003C08F2D867809F01F5F0F2DCB
:10302000F3FC14C0F0FE0FC0181510F09E2C0BC05E
:103030009E2C980C911A182D06C080E290E0B301E6
:103040000E94BF191F5F1815C0F304C0181510F4B3
:10305000811A01C0882404FF0FC080E390E0B3010F
:103060000E94BF1902FF1DC001FD03C088E790E068
:103070000EC088E590E00BC0802F867891F001FFAC
:1030800002C08BE201C080E2F7FC8DE290E0B30168
:103090000E94BF1906C080E390E0B3010E94BF19EF
:1030A0009A94E914C0F3EA94E1E0F0E0EC0FFD1F1C
:1030B000EE0DF11D808190E0B3010E94BF19EE205A
:1030C00091F706C080E290E0B3010E94BF198A9494
:1030D0008820C1F799CCF30166817781CB01619695
:1030E000E2E10C94B618AA1BBB1B51E107C0AA1F52
:1030F000BB1FA617B70710F0A61BB70B881F991F99
:103100005A95A9F780959095BC01CD01089597FB3C
:10311000092E07260AD077FD04D0E5DF06D000206F
:103120001AF4709561957F4F0895F6F79095819503
:103130009F4F08952F923F924F925F926F927F928E
:103140008F929F92AF92BF92CF92DF92EF92FF92B7
:103150000F931F93CF93DF93CDB7DEB7CA1BDB0B63
:103160000FB6F894DEBF0FBECDBF09942A88398808
:1031700048885F846E847D848C849B84AA84B9840F
:10318000C884DF80EE80FD800C811B81AA81B9811B
:10319000CE0FD11D0FB6F894DEBF0FBECDBFED012F
:1031A0000895283008F027E03327DA01990F311D00
:1031B00087FD916000966105710539F432602E5FDC
:1031C0003D9330E32A95E1F708959F3F30F0803832
:1031D0007105610509F03C5F3C5F3D93913008F05B
:1031E0008068911DDF93CF931F930F93FF92EF920F
:1031F000192F987F9695E92F96959695E90FFF27B9
:10320000E154FE4F99273327EE24FF24A701E7015D
:1032100005900894079428F4360FE71EF81E491FFE
:10322000511D660F771F881F991F0694A1F70590FF
:10323000079428F4E70EF81E491F561FC11D770F8B
:10324000881F991F661F0694A1F70590079428F41C
:10325000F80E491F561FC71FD11D880F991F661FE3
:10326000771F0694A1F70590079420F4490F561F85
:10327000C71FD81F990F661F771F881F0694A9F7CD
:1032800084911095177041F0D695C795579547953D
:10329000F794E7941A95C1F7E5E6F1E06894159084
:1032A000159135916591959105907FE27395E1189F
:1032B000F10A430B560BC90BD009C0F7E10CF11E04
:1032C000431F561FC91FD01D7EF4703311F48A9519
:1032D000E6CFE894015030F0080F0AF400270217F7
:1032E00008F4202F2395022F7A3328F079E37D9379
:1032F0002A95E9F710C07D932A9589F6069497954B
:103300006795379517951794E118F10A430B560BFB
:10331000C90BD00998F023957E9173957A3308F004
:1033200070E37C932013B8F77E9170617D9330F049
:10333000839571E37D9370E32A95E1F71124EF9073
:10334000FF900F911F91CF91DF91992787FD909565
:103350000895FC010590615070400110D8F78095E8
:1033600090958E0F9F1F0895FC0161507040019051
:103370000110D8F7809590958E0F9F1F08950F9399
:103380001F93CF93DF938C01EB018B8181FF1BC0D7
:1033900082FF0DC02E813F818C819D8128173907C6
:1033A00064F4E881F9810193F983E88306C0E88534
:1033B000F985802F0995892B31F48E819F810196A3
:1033C0009F838E8302C00FEF1FEFC801DF91CF9163
:1033D0001F910F910895A0E0B0E0E1EFF9E10C94A6
:1033E000AA18FE013596619171918091DF04909148
:1033F000E004AF010E94EC142096E2E00C94C618A1
:10340000FA01AA27283051F1203181F1E8946F9315
:103410006E7F6E5F7F4F8F4F9F4FAF4FB1E03ED0BB
:10342000B4E03CD0670F781F891F9A1FA11D680F59
:10343000791F8A1F911DA11D6A0F711D811D911D8C
:10344000A11D20D009F468943F912AE0269F112401
:103450003019305D3193DEF6CF010895462F477065
:10346000405D4193B3E00FD0C9F7F6CF462F4F70C0
:10347000405D4A3318F0495D31FD4052419302D01E
:10348000A9F7EACFB4E0A6959795879577956795C4
:10349000BA95C9F700976105710508959B01AC01C4
:1034A0000A2E06945795479537952795BA95C9F7EB
:1034B000620F731F841F951FA01D0895F894FFCFFE
:1034C0006D6F746F7220656E61626C65643A202561
:1034D000692C20776169743A2025690A00706F773A
:1034E00065723A2025692C20616363656C3A20255A
:1034F000692C20646563656C3A2025690A00737045
:103500006565643A20252E32662C206465736972E5
:1035100065642073706565643A20252E32660A0062
:10352000646972656374696F6E3A2025692C206442
:1035300065736972656420646972656374696F6E2E
:103540003A2025690A006F63725B25695D3A202580
:10355000690A0000050A10151B20252B30353B4059
:10356000454A4F54595E63686D6F70727374767715
:1035700078797A7B7B7C7D7D7E7E7E7F7F7F7F7F7F
:103580007F7E7E7E7D7D7C7B7B7A79787776747397
:1035900072706F6E7071727475767778797A7B7CE1
:1035A0007C7D7D7E7E7E7F7F7F7F7F7E7E7E7D7D3C
:1035B0007C7C7B7A7978777675747271706E6A65C7
:1035C000615C57524D48423D38332D28231D181257
:1035D0000D0802FEF8F3EEE8E3DDD8D3CDC8C3BE94
:1035E000B8B3AEA9A49F9B9692908F8E8C8B8A893C
:1035F0008887868584848383828282818181818198
:103600008282828383848485868788898A8B8C8E54
:103610008F909291908E8D8C8A89888786858584FB
:10362000838382828281818181818182828283837C
:10363000848585868788898A8C8D8E909193989DC4
:10364000A2A7ACB1B6BBC0C5CBD0D5DBE0E5EBF0F3
:10365000F6FB00780050724D0346000000010000A8
:1036600000000000A911000000000002000000009E
:06367000C511000000007E
:00000001FF
